{
  "_format": "hh-sol-artifact-1",
  "contractName": "ExamRegistration",
  "sourceName": "contracts/ExamRegistration.sol",
  "abi": [
    {
      "anonymous": false,
      "inputs": [
        {
          "indexed": true,
          "internalType": "address",
          "name": "student",
          "type": "address"
        },
        {
          "indexed": false,
          "internalType": "string",
          "name": "reason",
          "type": "string"
        },
        {
          "indexed": false,
          "internalType": "uint256",
          "name": "timestamp",
          "type": "uint256"
        }
      ],
      "name": "CheatingDetected",
      "type": "event"
    },
    {
      "anonymous": false,
      "inputs": [
        {
          "indexed": true,
          "internalType": "address",
          "name": "walletAddress",
          "type": "address"
        },
        {
          "indexed": false,
          "internalType": "string",
          "name": "studentId",
          "type": "string"
        },
        {
          "indexed": false,
          "internalType": "string",
          "name": "subject",
          "type": "string"
        },
        {
          "indexed": false,
          "internalType": "uint256",
          "name": "timestamp",
          "type": "uint256"
        }
      ],
      "name": "ExamCompleted",
      "type": "event"
    },
    {
      "anonymous": false,
      "inputs": [
        {
          "indexed": true,
          "internalType": "address",
          "name": "walletAddress",
          "type": "address"
        },
        {
          "indexed": false,
          "internalType": "string",
          "name": "studentId",
          "type": "string"
        },
        {
          "indexed": false,
          "internalType": "string",
          "name": "ipAddress",
          "type": "string"
        },
        {
          "indexed": false,
          "internalType": "string",
          "name": "imageHash",
          "type": "string"
        },
        {
          "indexed": false,
          "internalType": "uint256",
          "name": "timestamp",
          "type": "uint256"
        }
      ],
      "name": "IdentityVerified",
      "type": "event"
    },
    {
      "anonymous": false,
      "inputs": [
        {
          "indexed": true,
          "internalType": "address",
          "name": "previousOwner",
          "type": "address"
        },
        {
          "indexed": true,
          "internalType": "address",
          "name": "newOwner",
          "type": "address"
        }
      ],
      "name": "OwnershipTransferred",
      "type": "event"
    },
    {
      "anonymous": false,
      "inputs": [
        {
          "indexed": true,
          "internalType": "address",
          "name": "walletAddress",
          "type": "address"
        },
        {
          "indexed": false,
          "internalType": "string",
          "name": "studentId",
          "type": "string"
        },
        {
          "indexed": false,
          "internalType": "string",
          "name": "subject",
          "type": "string"
        },
        {
          "indexed": false,
          "internalType": "string",
          "name": "examSession",
          "type": "string"
        },
        {
          "indexed": false,
          "internalType": "uint256",
          "name": "timestamp",
          "type": "uint256"
        }
      ],
      "name": "StudentRegistered",
      "type": "event"
    },
    {
      "anonymous": false,
      "inputs": [
        {
          "indexed": true,
          "internalType": "address",
          "name": "studentAddress",
          "type": "address"
        },
        {
          "indexed": false,
          "internalType": "uint256",
          "name": "timestamp",
          "type": "uint256"
        }
      ],
      "name": "StudentRemovedFromWhitelist",
      "type": "event"
    },
    {
      "anonymous": false,
      "inputs": [
        {
          "indexed": true,
          "internalType": "address",
          "name": "studentAddress",
          "type": "address"
        },
        {
          "indexed": false,
          "internalType": "uint256",
          "name": "timestamp",
          "type": "uint256"
        }
      ],
      "name": "StudentWhitelisted",
      "type": "event"
    },
    {
      "inputs": [
        {
          "internalType": "address[]",
          "name": "_studentAddresses",
          "type": "address[]"
        }
      ],
      "name": "addMultipleStudentsToWhitelist",
      "outputs": [],
      "stateMutability": "nonpayable",
      "type": "function"
    },
    {
      "inputs": [
        {
          "internalType": "address",
          "name": "_studentAddress",
          "type": "address"
        }
      ],
      "name": "addStudentToWhitelist",
      "outputs": [],
      "stateMutability": "nonpayable",
      "type": "function"
    },
    {
      "inputs": [
        {
          "internalType": "address",
          "name": "_studentWallet",
          "type": "address"
        }
      ],
      "name": "completeExam",
      "outputs": [],
      "stateMutability": "nonpayable",
      "type": "function"
    },
    {
      "inputs": [
        {
          "internalType": "address",
          "name": "_walletAddress",
          "type": "address"
        }
      ],
      "name": "getStudentInfo",
      "outputs": [
        {
          "components": [
            {
              "internalType": "string",
              "name": "studentId",
              "type": "string"
            },
            {
              "internalType": "string",
              "name": "subject",
              "type": "string"
            },
            {
              "internalType": "string",
              "name": "examSession",
              "type": "string"
            },
            {
              "internalType": "address",
              "name": "walletAddress",
              "type": "address"
            },
            {
              "internalType": "bool",
              "name": "isRegistered",
              "type": "bool"
            },
            {
              "internalType": "bool",
              "name": "isVerified",
              "type": "bool"
            },
            {
              "internalType": "uint256",
              "name": "registrationTime",
              "type": "uint256"
            },
            {
              "internalType": "uint256",
              "name": "verificationTime",
              "type": "uint256"
            }
          ],
          "internalType": "struct ExamRegistration.Student",
          "name": "",
          "type": "tuple"
        }
      ],
      "stateMutability": "view",
      "type": "function"
    },
    {
      "inputs": [
        {
          "internalType": "address",
          "name": "_walletAddress",
          "type": "address"
        }
      ],
      "name": "getVerificationLogs",
      "outputs": [
        {
          "components": [
            {
              "internalType": "address",
              "name": "studentWallet",
              "type": "address"
            },
            {
              "internalType": "string",
              "name": "studentId",
              "type": "string"
            },
            {
              "internalType": "string",
              "name": "ipAddress",
              "type": "string"
            },
            {
              "internalType": "string",
              "name": "imageHash",
              "type": "string"
            },
            {
              "internalType": "uint256",
              "name": "timestamp",
              "type": "uint256"
            },
            {
              "internalType": "bool",
              "name": "success",
              "type": "bool"
            }
          ],
          "internalType": "struct ExamRegistration.VerificationLog[]",
          "name": "",
          "type": "tuple[]"
        }
      ],
      "stateMutability": "view",
      "type": "function"
    },
    {
      "inputs": [],
      "name": "getWhitelistedAddresses",
      "outputs": [
        {
          "internalType": "address[]",
          "name": "",
          "type": "address[]"
        }
      ],
      "stateMutability": "view",
      "type": "function"
    },
    {
      "inputs": [
        {
          "internalType": "address",
          "name": "",
          "type": "address"
        }
      ],
      "name": "isCheater",
      "outputs": [
        {
          "internalType": "bool",
          "name": "",
          "type": "bool"
        }
      ],
      "stateMutability": "view",
      "type": "function"
    },
    {
      "inputs": [
        {
          "internalType": "address",
          "name": "student",
          "type": "address"
        }
      ],
      "name": "isStudentCheater",
      "outputs": [
        {
          "internalType": "bool",
          "name": "",
          "type": "bool"
        }
      ],
      "stateMutability": "view",
      "type": "function"
    },
    {
      "inputs": [
        {
          "internalType": "address",
          "name": "_walletAddress",
          "type": "address"
        }
      ],
      "name": "isStudentRegistered",
      "outputs": [
        {
          "internalType": "bool",
          "name": "",
          "type": "bool"
        }
      ],
      "stateMutability": "view",
      "type": "function"
    },
    {
      "inputs": [
        {
          "internalType": "address",
          "name": "_walletAddress",
          "type": "address"
        }
      ],
      "name": "isStudentVerified",
      "outputs": [
        {
          "internalType": "bool",
          "name": "",
          "type": "bool"
        }
      ],
      "stateMutability": "view",
      "type": "function"
    },
    {
      "inputs": [
        {
          "internalType": "address",
          "name": "_studentAddress",
          "type": "address"
        }
      ],
      "name": "isStudentWhitelisted",
      "outputs": [
        {
          "internalType": "bool",
          "name": "",
          "type": "bool"
        }
      ],
      "stateMutability": "view",
      "type": "function"
    },
    {
      "inputs": [
        {
          "internalType": "address",
          "name": "_studentWallet",
          "type": "address"
        },
        {
          "internalType": "string",
          "name": "_ipAddress",
          "type": "string"
        },
        {
          "internalType": "string",
          "name": "_imageHash",
          "type": "string"
        },
        {
          "internalType": "string",
          "name": "_reason",
          "type": "string"
        }
      ],
      "name": "logFailedVerification",
      "outputs": [],
      "stateMutability": "nonpayable",
      "type": "function"
    },
    {
      "inputs": [
        {
          "internalType": "address",
          "name": "student",
          "type": "address"
        },
        {
          "internalType": "string",
          "name": "reason",
          "type": "string"
        }
      ],
      "name": "markCheating",
      "outputs": [],
      "stateMutability": "nonpayable",
      "type": "function"
    },
    {
      "inputs": [],
      "name": "owner",
      "outputs": [
        {
          "internalType": "address",
          "name": "",
          "type": "address"
        }
      ],
      "stateMutability": "view",
      "type": "function"
    },
    {
      "inputs": [
        {
          "internalType": "string",
          "name": "_studentId",
          "type": "string"
        },
        {
          "internalType": "string",
          "name": "_subject",
          "type": "string"
        },
        {
          "internalType": "string",
          "name": "_examSession",
          "type": "string"
        }
      ],
      "name": "registerForExam",
      "outputs": [],
      "stateMutability": "nonpayable",
      "type": "function"
    },
    {
      "inputs": [
        {
          "internalType": "address",
          "name": "_studentAddress",
          "type": "address"
        }
      ],
      "name": "removeStudentFromWhitelist",
      "outputs": [],
      "stateMutability": "nonpayable",
      "type": "function"
    },
    {
      "inputs": [],
      "name": "renounceOwnership",
      "outputs": [],
      "stateMutability": "nonpayable",
      "type": "function"
    },
    {
      "inputs": [
        {
          "internalType": "string",
          "name": "",
          "type": "string"
        }
      ],
      "name": "studentIdToWallet",
      "outputs": [
        {
          "internalType": "address",
          "name": "",
          "type": "address"
        }
      ],
      "stateMutability": "view",
      "type": "function"
    },
    {
      "inputs": [
        {
          "internalType": "address",
          "name": "",
          "type": "address"
        }
      ],
      "name": "students",
      "outputs": [
        {
          "internalType": "string",
          "name": "studentId",
          "type": "string"
        },
        {
          "internalType": "string",
          "name": "subject",
          "type": "string"
        },
        {
          "internalType": "string",
          "name": "examSession",
          "type": "string"
        },
        {
          "internalType": "address",
          "name": "walletAddress",
          "type": "address"
        },
        {
          "internalType": "bool",
          "name": "isRegistered",
          "type": "bool"
        },
        {
          "internalType": "bool",
          "name": "isVerified",
          "type": "bool"
        },
        {
          "internalType": "uint256",
          "name": "registrationTime",
          "type": "uint256"
        },
        {
          "internalType": "uint256",
          "name": "verificationTime",
          "type": "uint256"
        }
      ],
      "stateMutability": "view",
      "type": "function"
    },
    {
      "inputs": [
        {
          "internalType": "address",
          "name": "newOwner",
          "type": "address"
        }
      ],
      "name": "transferOwnership",
      "outputs": [],
      "stateMutability": "nonpayable",
      "type": "function"
    },
    {
      "inputs": [
        {
          "internalType": "address",
          "name": "student",
          "type": "address"
        }
      ],
      "name": "unmarkCheating",
      "outputs": [],
      "stateMutability": "nonpayable",
      "type": "function"
    },
    {
      "inputs": [
        {
          "internalType": "address",
          "name": "",
          "type": "address"
        },
        {
          "internalType": "uint256",
          "name": "",
          "type": "uint256"
        }
      ],
      "name": "verificationLogs",
      "outputs": [
        {
          "internalType": "address",
          "name": "studentWallet",
          "type": "address"
        },
        {
          "internalType": "string",
          "name": "studentId",
          "type": "string"
        },
        {
          "internalType": "string",
          "name": "ipAddress",
          "type": "string"
        },
        {
          "internalType": "string",
          "name": "imageHash",
          "type": "string"
        },
        {
          "internalType": "uint256",
          "name": "timestamp",
          "type": "uint256"
        },
        {
          "internalType": "bool",
          "name": "success",
          "type": "bool"
        }
      ],
      "stateMutability": "view",
      "type": "function"
    },
    {
      "inputs": [
        {
          "internalType": "string",
          "name": "_ipAddress",
          "type": "string"
        },
        {
          "internalType": "string",
          "name": "_imageHash",
          "type": "string"
        }
      ],
      "name": "verifyIdentity",
      "outputs": [],
      "stateMutability": "nonpayable",
      "type": "function"
    },
    {
      "inputs": [],
      "name": "whitelistCount",
      "outputs": [
        {
          "internalType": "uint256",
          "name": "",
          "type": "uint256"
        }
      ],
      "stateMutability": "view",
      "type": "function"
    },
    {
      "inputs": [
        {
          "internalType": "uint256",
          "name": "",
          "type": "uint256"
        }
      ],
      "name": "whitelistedAddresses",
      "outputs": [
        {
          "internalType": "address",
          "name": "",
          "type": "address"
        }
      ],
      "stateMutability": "view",
      "type": "function"
    },
    {
      "inputs": [
        {
          "internalType": "address",
          "name": "",
          "type": "address"
        }
      ],
      "name": "whitelistedStudents",
      "outputs": [
        {
          "internalType": "bool",
          "name": "",
          "type": "bool"
        }
      ],
      "stateMutability": "view",
      "type": "function"
    }
  ],
  "bytecode": "0x6080806040523461005f5760008054336001600160a01b0319821681178355916001600160a01b03909116907f8be0079c531659141344cd1fd0a4f28419497f9722a3daafe3b4186f6b6457e09080a36001805561226e90816100658239f35b600080fdfe6080604052600436101561001257600080fd5b60e0600035811c908163171f74a7146119b657816319662896146118b55781631a21ff96146117d3578163294f0c0f146116e55781633878622e146116a057816340007378146115fa578163455065a414610cd85781634b82caec1461145b5781636d0280271461139357816370ba913c1461132b578163715018a6146112d2578163822ca6751461112757816386ab09e6146110e55781638717b15414610ffe5781638da5cb5b14610fd5578163a363470714610440578163a6c807a914610ee2578163b1e978c714610d17578163b2dc163114610cd8578163b8b2e42c14610c93578163ba4e5c4914610c51578163c89f7fb11461047f57508063d68cc12914610440578063f2624b5d14610422578063f2fde38b146103595763fb0387121461013d57600080fd5b34610354576040366003190112610354576001600160401b036004358181116103545761016e903690600401611b84565b9060243590811161035457610187903690600401611b84565b3360005260206002815260ff60036040600020015460a01c16156103175733600052600881526101bf60ff6040600020541615611db3565b336000526002815260ff60036040600020015460a81c166102d3577f81f2525538d86ec8f1ac128595fd27d0a17d4a0fe5608c73d15c5f0dc6b7fb6b916102b66102c4923360005260028152610286604060002060038101600160a81b60ff60a81b198254161790554260058201556102506102576040519261024184611aff565b33845260405192838092611c8e565b0382611b36565b83820152876040820152846060820152426080820152600160a082015233600052600483526040600020611e09565b33600052600281526040600020956102a960405197608089526080890190611c8e565b9187830390880152611bfd565b908482036040860152611bfd565b914260608201528033930390a2005b6064906040519062461bcd60e51b82526004820152601860248201527f53747564656e7420616c726561647920766572696669656400000000000000006044820152fd5b6064906040519062461bcd60e51b82526004820152601660248201527514dd1d59195b9d081b9bdd081c9959da5cdd195c995960521b6044820152fd5b600080fd5b3461035457602036600319011261035457610372611b6e565b61037a611d5b565b6001600160a01b039081169081156103ce57600054826bffffffffffffffffffffffff60a01b821617600055167f8be0079c531659141344cd1fd0a4f28419497f9722a3daafe3b4186f6b6457e0600080a3005b60405162461bcd60e51b815260206004820152602660248201527f4f776e61626c653a206e6577206f776e657220697320746865207a65726f206160448201526564647265737360d01b6064820152608490fd5b34610354576000366003190112610354576020600654604051908152f35b34610354576020366003190112610354576001600160a01b03610461611b6e565b166000526005602052602060ff604060002054166040519015158152f35b34610354576060366003190112610354576004356001600160401b038111610354576104af903690600401611b84565b906024356001600160401b038111610354576104cf903690600401611b84565b60449182356001600160401b038111610354576104f0903690600401611b84565b9233600052600560205260ff6040600020541615610c0d57600260015414610bc957600260015533600052600860205261053260ff6040600020541615611db3565b845115610b8557825115610b4157835115610afd5733600052600260205260ff60036040600020015460a01c16610ac4576040518551610576818360208a01611bda565b60039082019081528190036020019020546001600160a01b0316610a805750604051906105a282611b1a565b84825282602083015283604083015233606083015260016080830152600060a08301524260c083015260008183015233600052600260205260406000209180518051906001600160401b0382116108d35781906105ff8654611c54565b601f8111610a30575b50602090601f83116001146109c4576000926109b9575b50508160011b916000199060031b1c19161783555b60208101518051906001600160401b0382116108d35781906106596001870154611c54565b601f8111610966575b50602090601f83116001146108f4576000926108e9575b50508160011b916000199060031b1c19161760018401555b60408101518051906001600160401b0382116108d3576106b46002860154611c54565b601f811161088c575b50602090601f83116001146107ee57936107d09693837ff4bf48584272e59a9f5fa6a68a23cc3d507b14a15d69344fbf5babcc4625fdb39997946005946102b6986000926107e3575b50508160011b916000199060031b1c19161760028501555b6003840160018060a01b0360608301511681549060ff60a01b6080850151151560a01b169060ff60a81b60a0860151151560a81b169269ffffffffffffffffffff60b01b16171717905560c081015160048501550151910155604051602081885161078c8183858d01611bda565b81016003815203019020336bffffffffffffffffffffffff60a01b8254161790556107c260405196608088526080880190611bfd565b908682036020880152611bfd565b914260608201528033930390a260018055005b015190508c80610706565b906002860160005260206000209160005b601f19851681106108745750936001846005946102b698946107d09b987ff4bf48584272e59a9f5fa6a68a23cc3d507b14a15d69344fbf5babcc4625fdb39d9b98601f1981161061085b575b505050811b01600285015561071e565b015160001960f88460031b161c191690558c808061084b565b919260206001819286850151815501940192016107ff565b600286016000526020600020601f840160051c8101602085106108cc575b601f830160051c820181106108c05750506106bd565b600081556001016108aa565b50806108aa565b634e487b7160e01b600052604160045260246000fd5b015190508880610679565b9250600186016000526020600020906000935b601f198416851061094b576001945083601f19811610610932575b505050811b016001840155610691565b015160001960f88460031b161c19169055888080610922565b81810151835560209485019460019093019290910190610907565b909150600186016000526020600020601f840160051c8101602085106109b2575b90849392915b601f830160051c820181106109a3575050610662565b6000815585945060010161098d565b5080610987565b01519050888061061f565b9250856000526020600020906000935b601f1984168510610a15576001945083601f198116106109fc575b505050811b018355610634565b015160001960f88460031b161c191690558880806109ef565b818101518355602094850194600190930192909101906109d4565b909150856000526020600020601f840160051c810160208510610a79575b90849392915b601f830160051c82018110610a6a575050610608565b60008155859450600101610a54565b5080610a4e565b6064907f53747564656e7420494420616c726561647920726567697374657265640000006040519162461bcd60e51b835260206004840152601d6024840152820152fd5b60649071105b1c9958591e481c9959da5cdd195c995960721b6040519162461bcd60e51b83526020600484015260126024840152820152fd5b6064907f4578616d2073657373696f6e2063616e6e6f7420626520656d707479000000006040519162461bcd60e51b835260206004840152601c6024840152820152fd5b6064907f5375626a6563742063616e6e6f7420626520656d7074790000000000000000006040519162461bcd60e51b83526020600484015260176024840152820152fd5b6064907f53747564656e742049442063616e6e6f7420626520656d7074790000000000006040519162461bcd60e51b835260206004840152601a6024840152820152fd5b6064907f5265656e7472616e637947756172643a207265656e7472616e742063616c6c006040519162461bcd60e51b835260206004840152601f6024840152820152fd5b6064907f53747564656e74206e6f742077686974656c69737465640000000000000000006040519162461bcd60e51b83526020600484015260176024840152820152fd5b346103545760203660031901126103545760043560075481101561035457610c7a602091611d24565b905460405160039290921b1c6001600160a01b03168152f35b34610354576020366003190112610354576001600160a01b03610cb4611b6e565b166000526002602052602060ff60036040600020015460a01c166040519015158152f35b34610354576020366003190112610354576001600160a01b03610cf9611b6e565b166000526008602052602060ff604060002054166040519015158152f35b3461035457602036600319011261035457610d30611b6e565b610d38611d5b565b6001600160a01b0390811690610d4f8215156121c6565b81600052600560205260ff6040600020541615610e9d57816000526005602052604060002060ff198154169055600654908115610e7d576000199182016006559060005b60079081549182821015610e9357849286610dad84611d24565b979054600398891b1c1614610dd2575050610dca91929350612204565b919091610d93565b909391828201918211610e7d57610dfc84610def610e1b94611d24565b905490891b1c1691611d24565b90919082549060031b9160018060a01b03809116831b921b1916179055565b82548015610e67570192610e2e84611d24565b81939154921b1b19169055555b7fcf93b2b3dfdac220dba8852e4b33f18dcafd9eecfd8ac13b8b104361ce28cd526020604051428152a2005b634e487b7160e01b600052603160045260246000fd5b634e487b7160e01b600052601160045260246000fd5b5050505050610e3b565b60405162461bcd60e51b815260206004820152601860248201527f53747564656e74206e6f7420696e2077686974656c69737400000000000000006044820152606490fd5b3461035457602036600319011261035457610f8d906001600160a01b0380610f08611b6e565b166000526002602052604060002060405192610f2f84610f288185611c8e565b0385611b36565b60405191610f4b83610f448160018501611c8e565b0384611b36565b60ff604051610f61816102508160028701611c8e565b610fa9600384015491610f9b60056004870154960154976040519b8c9b8c6101008091528d0190611bfd565b908b820360208d0152611bfd565b9089820360408b0152611bfd565b9581166060880152818160a01c161515608088015260a81c16151560a086015260c08501528301520390f35b34610354576000366003190112610354576000546040516001600160a01b039091168152602090f35b3461035457604036600319011261035457611017611b6e565b6001600160a01b0390811660009081526004602052604090208054602435908110156103545761104691611c22565b50908154166040519161106083610f448160018501611c8e565b604051611074816102508160028601611c8e565b6110d460405161108b816102508160038801611c8e565b6110c660ff6005600487015496015416936110b8604051988998895260c060208a015260c0890190611bfd565b908782036040890152611bfd565b908582036060870152611bfd565b916080840152151560a08301520390f35b34610354576020366003190112610354576110fe611b6e565b611106611d5b565b6001600160a01b03166000908152600860205260409020805460ff19169055005b3461035457602080600319360112610354576001600160a01b03908161114b611b6e565b1660005260048152604060002080549161116483611b57565b926111726040519485611b36565b8084528184018093600052826000206000915b8383106112445750505050604051928184019082855251809152604084019160408260051b86010193926000965b8388106111c05786860387f35b90919293948380600192603f198a820301865288519085825116815261121d61120a6111f88585015160c08088870152850190611bfd565b60408501518482036040860152611bfd565b6060808501519084830390850152611bfd565b916080808201519083015260a08091015115159101529701930197019690939291936111b3565b60068560019260409997995161125981611aff565b8b86541681526040516112728161025081898b01611c8e565b8382015260405161128a816102508160028b01611c8e565b60408201526040516112a3816102508160038b01611c8e565b60608201526004860154608082015260ff600587015416151560a0820152815201920192019190959395611185565b34610354576000366003190112610354576112eb611d5b565b600080546001600160a01b0319811682556001600160a01b03167f8be0079c531659141344cd1fd0a4f28419497f9722a3daafe3b4186f6b6457e08280a3005b34610354576020366003190112610354576004356001600160401b0381116103545761135d6020913690600401611b84565b816113716040519283815193849201611bda565b600390820190815281900382019020546040516001600160a01b039091168152f35b3461035457600036600319011261035457604051806007548083526020809301809160076000527fa66cc928b5edb82af9bd49922954155ab7b0942694bea4ce44661d9a8736c6889060005b8682821061143e5786866113f582880383611b36565b604051928392818401908285525180915260408401929160005b82811061141e57505050500390f35b83516001600160a01b03168552869550938101939281019260010161140f565b83546001600160a01b0316855290930192600192830192016113df565b34610354576020908160031936011261035457611476611b6e565b6040519261148384611b1a565b82606094858152858382015285604082015285810160009052608081016000905260a081016000905260c08101600090520160009052600160a01b60019003809216600052600281526040600020604051936114de85611b1a565b604051806114ec8185611c8e565b036114f79082611b36565b8552604051918261150b8160018401611c8e565b036115169084611b36565b858401928352604051928361152e8160028501611c8e565b036115399085611b36565b6040870193845260038201549088880196808316885260808901918360a01c60ff161515835260a08a019360a81c60ff161515845260048501549460c08b019586526005015496868b019788526040519b8c9b8a8d52518c6101009b8c9101526101208d016115a791611bfd565b9251601f198d8503810160408f0152936115c091611bfd565b9151928c830301908c01526115d491611bfd565b975116608089015251151560a088015251151560c0870152519085015251908301520390f35b3461035457604036600319011261035457611613611b6e565b6024356001600160401b038111610354576116956116567fd5c7fc3a725f2aa62775c210bb343b8e77ec728f90a50c63a6446c3334f3ac4a923690600401611b84565b9261165f611d5b565b60018060a01b0316928360005260086020526040600020600160ff19825416179055604051918291604083526040830190611bfd565b4260208301520390a2005b34610354576020366003190112610354576001600160a01b036116c1611b6e565b166000526002602052602060ff60036040600020015460a81c166040519015158152f35b34610354576020366003190112610354576116fe611b6e565b611706611d5b565b6001600160a01b0381169061171c8215156121c6565b81600052600560205260ff6040600020541661178e57611762908260005260056020526040600020600160ff1982541617905561175a600654612204565b600655612213565b7f1d2095e5884c4a3055f14754468671ab64277c270db301c341c45baf89761e246020604051428152a2005b60405162461bcd60e51b815260206004820152601b60248201527f53747564656e7420616c72656164792077686974656c697374656400000000006044820152606490fd5b34610354576080366003190112610354576117ec611b6e565b6001600160401b03906024358281116103545761180d903690600401611b84565b9060443583811161035457611826903690600401611b84565b90606435938411610354576118426118b3943690600401611b84565b5061184b611d5b565b60018060a01b0316908160005260026020526040600020926102506118856040519561187687611aff565b85875260405192838092611c8e565b602085015260408401526060830152426080830152600060a083015260005260046020526040600020611e09565b005b3461035457602080600319360112610354576118cf611b6e565b6118d7611d5b565b60018060a01b03169081600052600881526118fa60ff6040600020541615611db3565b816000526002815260ff60036040600020015460a81c161561197b5760017fb69d0970a6880eb9304bc24cdc3ee5750a889eda475648e525fd88b55ecf61f8918360005260028152611970604060002091604051938493606085526119626060860182611c8e565b928584039086015201611c8e565b4260408301520390a2005b6064906040519062461bcd60e51b82526004820152601460248201527314dd1d59195b9d081b9bdd081d995c9a599a595960621b6044820152fd5b346103545760208060031936011261035457600435906001600160401b0382116103545736602383011215610354578160040135906119f482611b57565b92611a026040519485611b36565b8284528184016024600594851b8301019136831161035457602401905b828210611ae057505050611a31611d5b565b60005b83518110156118b35780831b8401820151611a6791906001600160a01b031680151580611ac9575b611a6c575b50612204565b611a34565b806000528484526040600020600160ff198254161790556006611a8f8154612204565b9055611a9a81612213565b7f1d2095e5884c4a3055f14754468671ab64277c270db301c341c45baf89761e2484604051428152a285611a61565b508060005284845260ff6040600020541615611a5c565b81356001600160a01b0381168103610354578152908301908301611a1f565b60c081019081106001600160401b038211176108d357604052565b61010081019081106001600160401b038211176108d357604052565b90601f801991011681019081106001600160401b038211176108d357604052565b6001600160401b0381116108d35760051b60200190565b600435906001600160a01b038216820361035457565b81601f82011215610354578035906001600160401b0382116108d35760405192611bb8601f8401601f191660200185611b36565b8284526020838301011161035457816000926020809301838601378301015290565b60005b838110611bed5750506000910152565b8181015183820152602001611bdd565b90602091611c1681518092818552858086019101611bda565b601f01601f1916010190565b8054821015611c3e576000526006602060002091020190600090565b634e487b7160e01b600052603260045260246000fd5b90600182811c92168015611c84575b6020831014611c6e57565b634e487b7160e01b600052602260045260246000fd5b91607f1691611c63565b9060009291805491611c9f83611c54565b918282526001938481169081600014611d015750600114611cc1575b50505050565b90919394506000526020928360002092846000945b838610611ced575050505001019038808080611cbb565b805485870183015294019385908201611cd6565b9294505050602093945060ff191683830152151560051b01019038808080611cbb565b600754811015611c3e5760076000527fa66cc928b5edb82af9bd49922954155ab7b0942694bea4ce44661d9a8736c6880190600090565b6000546001600160a01b03163303611d6f57565b606460405162461bcd60e51b815260206004820152602060248201527f4f776e61626c653a2063616c6c6572206973206e6f7420746865206f776e65726044820152fd5b15611dba57565b60405162461bcd60e51b815260206004820152602160248201527f4368656174696e672064657465637465643a20616374696f6e20626c6f636b656044820152601960fa1b6064820152608490fd5b8054600160401b8110156108d357611e28906001928382018155611c22565b6121b057825181546001600160a01b0319166001600160a01b03919091161781556020808401518051919390916001600160401b039190818501908381116108d35780611e758354611c54565b95601f9687811161215e575b5088908783116001146120fb576000926120f0575b5050600019600383901b1c191690831b1790555b6002840160408701518051908482116108d3578190611ec98454611c54565b87811161209f575b50889087831160011461203c57600092612031575b5050600019600383901b1c191690831b1790555b600384019260608701519586519384116108d357611f188554611c54565b828111611feb575b5080918411600114611f7c575091808092600596959460a098600094611f71575b50501b916000199060031b1c19161790555b6080840151600482015501910151151560ff80198354169116179055565b015192503880611f41565b91939495601f1984168660005283600020936000905b828210611fd45750509160a09795939185600598969410611fbb575b505050811b019055611f53565b015160001960f88460031b161c19169055388080611fae565b808886978294978701518155019601940190611f92565b85600052816000208380870160051c820192848810612028575b0160051c019084905b82811061201c575050611f20565b6000815501849061200e565b92508192612005565b015190503880611ee6565b90859350601f19831691856000528a6000209260005b8c8282106120895750508411612070575b505050811b019055611efa565b015160001960f88460031b161c19169055388080612063565b8385015186558997909501949384019301612052565b90915083600052886000208780850160051c8201928b86106120e7575b918791869594930160051c01915b8281106120d8575050611ed1565b600081558594508791016120ca565b925081926120bc565b015190503880611e96565b90859350601f19831691856000528a6000209260005b8c828210612148575050841161212f575b505050811b019055611eaa565b015160001960f88460031b161c19169055388080612122565b8385015186558997909501949384019301612111565b90915060008481528981208880860160051c8201938c87106121a7575b91889187969594930160051c01925b83811061219957505050611e81565b82815586955088910161218a565b9350819361217b565b634e487b7160e01b600052600060045260246000fd5b156121cd57565b60405162461bcd60e51b815260206004820152600f60248201526e496e76616c6964206164647265737360881b6044820152606490fd5b6000198114610e7d5760010190565b60075490600160401b8210156108d357610dfc8260016122369401600755611d24565b56fea26469706673582212203c7deb01f04fd15c180bbc944518af2c713866787bbb2eeffacf2cf25d48f0ad64736f6c63430008140033",
  "linkReferences": {},
  "deployedLinkReferences": {}
}