{
  "_format": "hh-sol-artifact-1",
  "contractName": "ExamCertificateNFT",
  "sourceName": "contracts/ExamCertificateNFT.sol",
  "abi": [
    {
      "inputs": [],
      "stateMutability": "nonpayable",
      "type": "constructor"
    },
    {
      "anonymous": false,
      "inputs": [
        {
          "indexed": true,
          "internalType": "address",
          "name": "owner",
          "type": "address"
        },
        {
          "indexed": true,
          "internalType": "address",
          "name": "approved",
          "type": "address"
        },
        {
          "indexed": true,
          "internalType": "uint256",
          "name": "tokenId",
          "type": "uint256"
        }
      ],
      "name": "Approval",
      "type": "event"
    },
    {
      "anonymous": false,
      "inputs": [
        {
          "indexed": true,
          "internalType": "address",
          "name": "owner",
          "type": "address"
        },
        {
          "indexed": true,
          "internalType": "address",
          "name": "operator",
          "type": "address"
        },
        {
          "indexed": false,
          "internalType": "bool",
          "name": "approved",
          "type": "bool"
        }
      ],
      "name": "ApprovalForAll",
      "type": "event"
    },
    {
      "anonymous": false,
      "inputs": [
        {
          "indexed": false,
          "internalType": "uint256",
          "name": "_fromTokenId",
          "type": "uint256"
        },
        {
          "indexed": false,
          "internalType": "uint256",
          "name": "_toTokenId",
          "type": "uint256"
        }
      ],
      "name": "BatchMetadataUpdate",
      "type": "event"
    },
    {
      "anonymous": false,
      "inputs": [
        {
          "indexed": true,
          "internalType": "uint256",
          "name": "tokenId",
          "type": "uint256"
        },
        {
          "indexed": true,
          "internalType": "address",
          "name": "studentWallet",
          "type": "address"
        },
        {
          "indexed": false,
          "internalType": "string",
          "name": "studentId",
          "type": "string"
        },
        {
          "indexed": false,
          "internalType": "string",
          "name": "subject",
          "type": "string"
        },
        {
          "indexed": false,
          "internalType": "uint256",
          "name": "examDate",
          "type": "uint256"
        },
        {
          "indexed": false,
          "internalType": "uint256",
          "name": "score",
          "type": "uint256"
        }
      ],
      "name": "CertificateMinted",
      "type": "event"
    },
    {
      "anonymous": false,
      "inputs": [
        {
          "indexed": true,
          "internalType": "uint256",
          "name": "tokenId",
          "type": "uint256"
        },
        {
          "indexed": true,
          "internalType": "address",
          "name": "studentWallet",
          "type": "address"
        },
        {
          "indexed": false,
          "internalType": "string",
          "name": "reason",
          "type": "string"
        }
      ],
      "name": "CertificateRevoked",
      "type": "event"
    },
    {
      "anonymous": false,
      "inputs": [
        {
          "indexed": false,
          "internalType": "uint256",
          "name": "_tokenId",
          "type": "uint256"
        }
      ],
      "name": "MetadataUpdate",
      "type": "event"
    },
    {
      "anonymous": false,
      "inputs": [
        {
          "indexed": true,
          "internalType": "address",
          "name": "previousOwner",
          "type": "address"
        },
        {
          "indexed": true,
          "internalType": "address",
          "name": "newOwner",
          "type": "address"
        }
      ],
      "name": "OwnershipTransferred",
      "type": "event"
    },
    {
      "anonymous": false,
      "inputs": [
        {
          "indexed": true,
          "internalType": "address",
          "name": "from",
          "type": "address"
        },
        {
          "indexed": true,
          "internalType": "address",
          "name": "to",
          "type": "address"
        },
        {
          "indexed": true,
          "internalType": "uint256",
          "name": "tokenId",
          "type": "uint256"
        }
      ],
      "name": "Transfer",
      "type": "event"
    },
    {
      "inputs": [
        {
          "internalType": "address",
          "name": "to",
          "type": "address"
        },
        {
          "internalType": "uint256",
          "name": "tokenId",
          "type": "uint256"
        }
      ],
      "name": "approve",
      "outputs": [],
      "stateMutability": "nonpayable",
      "type": "function"
    },
    {
      "inputs": [
        {
          "internalType": "address",
          "name": "owner",
          "type": "address"
        }
      ],
      "name": "balanceOf",
      "outputs": [
        {
          "internalType": "uint256",
          "name": "",
          "type": "uint256"
        }
      ],
      "stateMutability": "view",
      "type": "function"
    },
    {
      "inputs": [
        {
          "internalType": "uint256",
          "name": "",
          "type": "uint256"
        }
      ],
      "name": "examInfo",
      "outputs": [
        {
          "internalType": "string",
          "name": "studentId",
          "type": "string"
        },
        {
          "internalType": "string",
          "name": "subject",
          "type": "string"
        },
        {
          "internalType": "string",
          "name": "examSession",
          "type": "string"
        },
        {
          "internalType": "uint256",
          "name": "examDate",
          "type": "uint256"
        },
        {
          "internalType": "uint256",
          "name": "verificationTime",
          "type": "uint256"
        },
        {
          "internalType": "string",
          "name": "ipAddress",
          "type": "string"
        },
        {
          "internalType": "bool",
          "name": "isValid",
          "type": "bool"
        },
        {
          "internalType": "uint256",
          "name": "score",
          "type": "uint256"
        }
      ],
      "stateMutability": "view",
      "type": "function"
    },
    {
      "inputs": [
        {
          "internalType": "uint256",
          "name": "tokenId",
          "type": "uint256"
        }
      ],
      "name": "getApproved",
      "outputs": [
        {
          "internalType": "address",
          "name": "",
          "type": "address"
        }
      ],
      "stateMutability": "view",
      "type": "function"
    },
    {
      "inputs": [
        {
          "internalType": "uint256",
          "name": "_tokenId",
          "type": "uint256"
        }
      ],
      "name": "getExamInfo",
      "outputs": [
        {
          "components": [
            {
              "internalType": "string",
              "name": "studentId",
              "type": "string"
            },
            {
              "internalType": "string",
              "name": "subject",
              "type": "string"
            },
            {
              "internalType": "string",
              "name": "examSession",
              "type": "string"
            },
            {
              "internalType": "uint256",
              "name": "examDate",
              "type": "uint256"
            },
            {
              "internalType": "uint256",
              "name": "verificationTime",
              "type": "uint256"
            },
            {
              "internalType": "string",
              "name": "ipAddress",
              "type": "string"
            },
            {
              "internalType": "bool",
              "name": "isValid",
              "type": "bool"
            },
            {
              "internalType": "uint256",
              "name": "score",
              "type": "uint256"
            }
          ],
          "internalType": "struct ExamCertificateNFT.ExamInfo",
          "name": "",
          "type": "tuple"
        }
      ],
      "stateMutability": "view",
      "type": "function"
    },
    {
      "inputs": [
        {
          "internalType": "address",
          "name": "_walletAddress",
          "type": "address"
        }
      ],
      "name": "getTokenIdByWallet",
      "outputs": [
        {
          "internalType": "uint256",
          "name": "",
          "type": "uint256"
        }
      ],
      "stateMutability": "view",
      "type": "function"
    },
    {
      "inputs": [],
      "name": "getTotalCertificates",
      "outputs": [
        {
          "internalType": "uint256",
          "name": "",
          "type": "uint256"
        }
      ],
      "stateMutability": "view",
      "type": "function"
    },
    {
      "inputs": [
        {
          "internalType": "address",
          "name": "owner",
          "type": "address"
        },
        {
          "internalType": "address",
          "name": "operator",
          "type": "address"
        }
      ],
      "name": "isApprovedForAll",
      "outputs": [
        {
          "internalType": "bool",
          "name": "",
          "type": "bool"
        }
      ],
      "stateMutability": "view",
      "type": "function"
    },
    {
      "inputs": [
        {
          "internalType": "uint256",
          "name": "_tokenId",
          "type": "uint256"
        }
      ],
      "name": "isCertificateValid",
      "outputs": [
        {
          "internalType": "bool",
          "name": "",
          "type": "bool"
        }
      ],
      "stateMutability": "view",
      "type": "function"
    },
    {
      "inputs": [
        {
          "internalType": "address",
          "name": "_studentWallet",
          "type": "address"
        },
        {
          "internalType": "string",
          "name": "_studentId",
          "type": "string"
        },
        {
          "internalType": "string",
          "name": "_subject",
          "type": "string"
        },
        {
          "internalType": "string",
          "name": "_examSession",
          "type": "string"
        },
        {
          "internalType": "string",
          "name": "_ipAddress",
          "type": "string"
        },
        {
          "internalType": "uint256",
          "name": "_score",
          "type": "uint256"
        },
        {
          "internalType": "string",
          "name": "_tokenURI",
          "type": "string"
        }
      ],
      "name": "mintCertificate",
      "outputs": [
        {
          "internalType": "uint256",
          "name": "",
          "type": "uint256"
        }
      ],
      "stateMutability": "nonpayable",
      "type": "function"
    },
    {
      "inputs": [],
      "name": "name",
      "outputs": [
        {
          "internalType": "string",
          "name": "",
          "type": "string"
        }
      ],
      "stateMutability": "view",
      "type": "function"
    },
    {
      "inputs": [],
      "name": "owner",
      "outputs": [
        {
          "internalType": "address",
          "name": "",
          "type": "address"
        }
      ],
      "stateMutability": "view",
      "type": "function"
    },
    {
      "inputs": [
        {
          "internalType": "uint256",
          "name": "tokenId",
          "type": "uint256"
        }
      ],
      "name": "ownerOf",
      "outputs": [
        {
          "internalType": "address",
          "name": "",
          "type": "address"
        }
      ],
      "stateMutability": "view",
      "type": "function"
    },
    {
      "inputs": [],
      "name": "renounceOwnership",
      "outputs": [],
      "stateMutability": "nonpayable",
      "type": "function"
    },
    {
      "inputs": [
        {
          "internalType": "uint256",
          "name": "_tokenId",
          "type": "uint256"
        },
        {
          "internalType": "string",
          "name": "_reason",
          "type": "string"
        }
      ],
      "name": "revokeCertificate",
      "outputs": [],
      "stateMutability": "nonpayable",
      "type": "function"
    },
    {
      "inputs": [
        {
          "internalType": "address",
          "name": "from",
          "type": "address"
        },
        {
          "internalType": "address",
          "name": "to",
          "type": "address"
        },
        {
          "internalType": "uint256",
          "name": "tokenId",
          "type": "uint256"
        }
      ],
      "name": "safeTransferFrom",
      "outputs": [],
      "stateMutability": "nonpayable",
      "type": "function"
    },
    {
      "inputs": [
        {
          "internalType": "address",
          "name": "from",
          "type": "address"
        },
        {
          "internalType": "address",
          "name": "to",
          "type": "address"
        },
        {
          "internalType": "uint256",
          "name": "tokenId",
          "type": "uint256"
        },
        {
          "internalType": "bytes",
          "name": "data",
          "type": "bytes"
        }
      ],
      "name": "safeTransferFrom",
      "outputs": [],
      "stateMutability": "nonpayable",
      "type": "function"
    },
    {
      "inputs": [
        {
          "internalType": "address",
          "name": "operator",
          "type": "address"
        },
        {
          "internalType": "bool",
          "name": "approved",
          "type": "bool"
        }
      ],
      "name": "setApprovalForAll",
      "outputs": [],
      "stateMutability": "nonpayable",
      "type": "function"
    },
    {
      "inputs": [
        {
          "internalType": "bytes4",
          "name": "interfaceId",
          "type": "bytes4"
        }
      ],
      "name": "supportsInterface",
      "outputs": [
        {
          "internalType": "bool",
          "name": "",
          "type": "bool"
        }
      ],
      "stateMutability": "view",
      "type": "function"
    },
    {
      "inputs": [],
      "name": "symbol",
      "outputs": [
        {
          "internalType": "string",
          "name": "",
          "type": "string"
        }
      ],
      "stateMutability": "view",
      "type": "function"
    },
    {
      "inputs": [
        {
          "internalType": "uint256",
          "name": "tokenId",
          "type": "uint256"
        }
      ],
      "name": "tokenURI",
      "outputs": [
        {
          "internalType": "string",
          "name": "",
          "type": "string"
        }
      ],
      "stateMutability": "view",
      "type": "function"
    },
    {
      "inputs": [
        {
          "internalType": "address",
          "name": "from",
          "type": "address"
        },
        {
          "internalType": "address",
          "name": "to",
          "type": "address"
        },
        {
          "internalType": "uint256",
          "name": "tokenId",
          "type": "uint256"
        }
      ],
      "name": "transferFrom",
      "outputs": [],
      "stateMutability": "nonpayable",
      "type": "function"
    },
    {
      "inputs": [
        {
          "internalType": "address",
          "name": "newOwner",
          "type": "address"
        }
      ],
      "name": "transferOwnership",
      "outputs": [],
      "stateMutability": "nonpayable",
      "type": "function"
    },
    {
      "inputs": [
        {
          "internalType": "address",
          "name": "",
          "type": "address"
        },
        {
          "internalType": "string",
          "name": "",
          "type": "string"
        }
      ],
      "name": "walletSubjectToTokenId",
      "outputs": [
        {
          "internalType": "uint256",
          "name": "",
          "type": "uint256"
        }
      ],
      "stateMutability": "view",
      "type": "function"
    }
  ],
  "bytecode": "0x6080346200036f576001600160401b039060408181018381118382101762000359578152601482526020917f4578616d204365727469666963617465204e465400000000000000000000000083820152815193828501858110828211176200035957835260088552671156105350d1549560c21b84860152815181811162000359576000948554916001948584811c941680156200034e575b838510146200033a578190601f94858111620002e7575b5083908583116001146200028357899262000277575b5050600019600383901b1c191690851b1786555b8651928311620002635783548481811c9116801562000258575b828210146200024457828111620001fc575b50809183116001146200019557508495829394959262000189575b5050600019600383901b1c191690821b1790555b60078054336001600160a01b03198216811790925591519290916001600160a01b0316907f8be0079c531659141344cd1fd0a4f28419497f9722a3daafe3b4186f6b6457e09080a36120259081620003758239f35b01519050388062000120565b90601f198316968487528287209287905b898210620001e4575050838596979810620001ca575b505050811b01905562000134565b015160001960f88460031b161c19169055388080620001bc565b808785968294968601518155019501930190620001a6565b8487528187208380860160051c8201928487106200023a575b0160051c019085905b8281106200022e57505062000105565b8881550185906200021e565b9250819262000215565b634e487b7160e01b87526022600452602487fd5b90607f1690620000f3565b634e487b7160e01b86526041600452602486fd5b015190503880620000c5565b898052848a208894509190601f1984168b5b87828210620002d05750508411620002b6575b505050811b018655620000d9565b015160001960f88460031b161c19169055388080620002a8565b8385015186558b9790950194938401930162000295565b9091508880528389208580850160051c82019286861062000330575b918991869594930160051c01915b82811062000321575050620000af565b8b815585945089910162000311565b9250819262000303565b634e487b7160e01b88526022600452602488fd5b93607f169362000098565b634e487b7160e01b600052604160045260246000fd5b600080fdfe608080604052600436101561001357600080fd5b60003560e01c90816301ffc9a7146117895750806306fdde03146116e6578063081812fc146116c857806308e412cb1461153f578063095ea7b3146113c55780631d2cbedc146113a057806323b872dd1461137757806342842e0e1461134f5780634974068c146112805780636352211e1461125057806370a08231146111b9578063715018a61461115c5780637843bb791461113e5780638da5cb5b1461111557806395d89b4114611036578063a22cb46514610f5b578063a5ce413a14610f04578063b1466d1d14610e1f578063b2c2876a1461039c578063b88d4fde1461033b578063c411ee77146102c1578063c87b56dd1461024b578063e985e9c5146101f55763f2fde38b1461012757600080fd5b346101f05760203660031901126101f057610140611856565b610148611a5f565b6001600160a01b0390811690811561019c57600754826bffffffffffffffffffffffff60a01b821617600755167f8be0079c531659141344cd1fd0a4f28419497f9722a3daafe3b4186f6b6457e0600080a3005b60405162461bcd60e51b815260206004820152602660248201527f4f776e61626c653a206e6577206f776e657220697320746865207a65726f206160448201526564647265737360d01b6064820152608490fd5b600080fd5b346101f05760403660031901126101f05761020e611856565b61021661186c565b9060018060a01b03809116600052600560205260406000209116600052602052602060ff604060002054166040519015158152f35b346101f05760203660031901126101f057600435600081815260026020526040902054610282906001600160a01b03161515611ab7565b60005260066020526102bd61029a6040600020611949565b60006040516102a88161190d565b52604051918291602083526020830190611831565b0390f35b346101f05760403660031901126101f0576102da611856565b602435906001600160401b0382116101f05760206103299161030182943690600401611a41565b9060018060a01b0316600052600982526040600020826040519483868095519384920161180e565b82019081520301902054604051908152f35b346101f05760803660031901126101f057610354611856565b61035c61186c565b606435916001600160401b0383116101f057366023840112156101f05761039061039a933690602481600401359101611a0a565b9160443591611bc6565b005b346101f05760e03660031901126101f0576103b5611856565b6024356001600160401b0381116101f0576103d4903690600401611a41565b906044356001600160401b0381116101f0576103f4903690600401611a41565b906064356001600160401b0381116101f057610414903690600401611a41565b916084356001600160401b0381116101f057610434903690600401611a41565b9260c4356001600160401b0381116101f057610454903690600401611a41565b9361045d611a5f565b6001600160a01b03841615610de157855115610d9c5760018060a01b0384166000526009602052604060002060206040518092865161049f8184868b0161180e565b82019081520301902054610d435760016008540194856008556104e06104da87600052600260205260018060a01b0360406000205416151590565b15611f60565b600086815260026020526040902054610503906001600160a01b031615156104da565b6001600160a01b0385166000818152600360209081526040808320805460010190558983526002909152812080546001600160a01b031916831790558791907fddf252ad1be2c89b69c2b068fc378daa952ba7f163c4a11628f55a4df523b3ef8180a46000868152600260205260409020546001600160a01b031615610ce7578560005260066020526040600020908051906001600160401b0382116109a35781906105af84546118b7565b601f8111610c97575b50602090601f8311600114610c2b57600092610c20575b50508160011b916000199060031b1c19161790555b7ff8e1a15aba9398e019f0b49df1a4fde98ee17ae345cb5f6b5e2c27f5033e8ce76020604051878152a160018060a01b038416600052600960205284604060002060206040518092875161063b8184868c0161180e565b8201908152030190205560405191610652836118f1565b868352836020840152604083015242606083015242608083015260a0820152600160c082015260a43560e082015283600052600a60205260406000209080518051906001600160401b0382116109a35781906106ae85546118b7565b601f8111610bd0575b50602090601f8311600114610b6457600092610b59575b50508160011b916000199060031b1c19161782555b60208101518051906001600160401b0382116109a357819061070860018601546118b7565b601f8111610b06575b50602090601f8311600114610a9457600092610a89575b50508160011b916000199060031b1c19161760018301555b60408101518051906001600160401b0382116109a357819061076560028601546118b7565b601f8111610a36575b50602090601f83116001146109c4576000926109b9575b50508160011b916000199060031b1c19161760028301555b606081015160038301556080810151600483015560a08101518051906001600160401b0382116109a3576107d460058501546118b7565b601f811161095c575b509160209793918795938990601f83116001146108bc5760e061088c948461087f98957ff63fd96e0602d6f84e816afd7eb668e0079060a2520980c4d958038a7f177fc19a98956007956000926108b1575b50508160011b916000199060031b1c19161760058501555b61086660c08201511515600686019060ff801983541691151516179055565b0151910155604051938493608085526080850190611831565b908382038a850152611831565b42604083015260a43560608301526001600160a01b03909516940390a3604051908152f35b015190508f8061082f565b90600585016000528a6000209160005b601f1985168110610942575061088c946001857ff63fd96e0602d6f84e816afd7eb668e0079060a2520980c4d958038a7f177fc19a989560079560e09561087f9c99601f19811610610929575b505050811b016005850155610847565b015160001960f88460031b161c191690558f8080610919565b8183015184558b9950600190930192918c01918c016108cc565b600585016000526020600020601f840160051c81016020851061099c575b601f830160051c820181106109905750506107dd565b6000815560010161097a565b508061097a565b634e487b7160e01b600052604160045260246000fd5b015190508880610785565b9250600285016000526020600020906000935b601f1984168510610a1b576001945083601f19811610610a02575b505050811b01600283015561079d565b015160001960f88460031b161c191690558880806109f2565b818101518355602094850194600190930192909101906109d7565b909150600285016000526020600020601f840160051c810160208510610a82575b90849392915b601f830160051c82018110610a7357505061076e565b60008155859450600101610a5d565b5080610a57565b015190508880610728565b9250600185016000526020600020906000935b601f1984168510610aeb576001945083601f19811610610ad2575b505050811b016001830155610740565b015160001960f88460031b161c19169055888080610ac2565b81810151835560209485019460019093019290910190610aa7565b909150600185016000526020600020601f840160051c810160208510610b52575b90849392915b601f830160051c82018110610b43575050610711565b60008155859450600101610b2d565b5080610b27565b0151905088806106ce565b9250846000526020600020906000935b601f1984168510610bb5576001945083601f19811610610b9c575b505050811b0182556106e3565b015160001960f88460031b161c19169055888080610b8f565b81810151835560209485019460019093019290910190610b74565b909150846000526020600020601f840160051c810160208510610c19575b90849392915b601f830160051c82018110610c0a5750506106b7565b60008155859450600101610bf4565b5080610bee565b0151905089806105cf565b9250836000526020600020906000935b601f1984168510610c7c576001945083601f19811610610c63575b505050811b0190556105e4565b015160001960f88460031b161c19169055898080610c56565b81810151835560209485019460019093019290910190610c3b565b909150836000526020600020601f840160051c810160208510610ce0575b90849392915b601f830160051c82018110610cd15750506105b8565b60008155859450600101610cbb565b5080610cb5565b60405162461bcd60e51b815260206004820152602e60248201527f45524337323155524953746f726167653a2055524920736574206f66206e6f6e60448201526d32bc34b9ba32b73a103a37b5b2b760911b6064820152608490fd5b60405162461bcd60e51b815260206004820152602b60248201527f436572746966696361746520666f722074686973207375626a65637420616c7260448201526a656164792065786973747360a81b6064820152608490fd5b60405162461bcd60e51b815260206004820152601a60248201527f53747564656e742049442063616e6e6f7420626520656d7074790000000000006044820152606490fd5b60405162461bcd60e51b8152602060048201526016602482015275496e76616c69642077616c6c6574206164647265737360501b6044820152606490fd5b346101f05760403660031901126101f0576004356024356001600160401b0381116101f057610e52903690600401611a41565b50610e5b611a5f565b600081815260026020526040902054610e83906001600160a01b03161515611fac565b611fac565b80600052600a60205260ff6006604060002001541615610ebf578061039a91600052600a602052600660406000200160ff198154169055611b03565b60405162461bcd60e51b815260206004820152601b60248201527f436572746966696361746520616c7265616479207265766f6b656400000000006044820152606490fd5b346101f05760203660031901126101f057600435600081815260026020526040902054610f3b906001600160a01b03161515611fac565b600052600a602052602060ff600660406000200154166040519015158152f35b346101f05760403660031901126101f057610f74611856565b60243590811515908183036101f0576001600160a01b031691338314610ff157610fc39033600052600560205260406000208460005260205260406000209060ff801983541691151516179055565b6040519081527f17307eab39ab6107e8899845ad3d59bd9653f200f220920489ca2b5937696c3160203392a3005b60405162461bcd60e51b815260206004820152601960248201527f4552433732313a20617070726f766520746f2063616c6c6572000000000000006044820152606490fd5b346101f05760003660031901126101f0576040516000600180549061105a826118b7565b808552918181169081156110ee5750600114611095575b6102bd8461108181860382611928565b604051918291602083526020830190611831565b600081815292507fb10e2d527612073b26eecdfd717e6a320cf44b4afac2b0732d9fcbe2b7fa0cf65b8284106110d657505050810160200161108182611071565b805460208587018101919091529093019281016110be565b60ff191660208087019190915292151560051b850190920192506110819150839050611071565b346101f05760003660031901126101f0576007546040516001600160a01b039091168152602090f35b346101f05760003660031901126101f0576020600854604051908152f35b346101f05760003660031901126101f057611175611a5f565b600780546001600160a01b031981169091556000906001600160a01b03167f8be0079c531659141344cd1fd0a4f28419497f9722a3daafe3b4186f6b6457e08280a3005b346101f05760203660031901126101f0576001600160a01b036111da611856565b1680156111f95760005260036020526020604060002054604051908152f35b60405162461bcd60e51b815260206004820152602960248201527f4552433732313a2061646472657373207a65726f206973206e6f7420612076616044820152683634b21037bbb732b960b91b6064820152608490fd5b346101f05760203660031901126101f057602061126e600435611b03565b6040516001600160a01b039091168152f35b346101f05760203660031901126101f057600435600052600a60205261130a60406000206112ad81611949565b906112ba60018201611949565b61133e6112c960028401611949565b60038401549060048501546113266112e360058801611949565b92611318600760ff60068b015416990154976040519b8c9b8c6101008091528d0190611831565b908b820360208d0152611831565b9089820360408b0152611831565b926060880152608087015285820360a0870152611831565b91151560c084015260e08301520390f35b346101f05761039a61136036611882565b906040519261136e8461190d565b60008452611bc6565b346101f05761039a61138836611882565b9161139b6113968433611c61565b611b64565b611d29565b346101f05760203660031901126101f0576113b9611856565b50602060405160008152f35b346101f05760403660031901126101f0576113de611856565b602435906001600160a01b0380806113f585611b03565b169216918083146114f0578033149081156114cb575b501561146057600083815260046020526040902080546001600160a01b0319168317905561143883611b03565b167f8c5be1e5ebec7d5bd14f71427d1e84f3dd0314c0f7b2291e5b200ac8c7c3b925600080a4005b60405162461bcd60e51b815260206004820152603d60248201527f4552433732313a20617070726f76652063616c6c6572206973206e6f7420746f60448201527f6b656e206f776e6572206f7220617070726f76656420666f7220616c6c0000006064820152608490fd5b9050600052600560205260406000203360005260205260ff604060002054168461140b565b60405162461bcd60e51b815260206004820152602160248201527f4552433732313a20617070726f76616c20746f2063757272656e74206f776e656044820152603960f91b6064820152608490fd5b346101f0576020806003193601126101f0576116736004359160405192611565846118f1565b600060e0606095868152868582015286604082015282878201528260808201528660a08201528260c082015201526115b5610e7e82600052600260205260018060a01b0360406000205416151590565b600052600a8152604060002090604051936115cf856118f1565b6115d883611949565b85526116b66115e960018501611949565b958381019687526115fc60028601611949565b906040810191825260038601549184820192835260048701546080830190815261169961162b60058a01611949565b9260a08501938452600760ff60068c0154169a60c087019b15158c5201549760e086019889526116886040519d8e9d8e988d8a5251610100809e8b01526101208a0190611831565b9051601f199860408a82850301910152611831565b915190868d840301908d0152611831565b935160808a01525160a089015251908783030160c0880152611831565b9251151560e085015251908301520390f35b346101f05760203660031901126101f057602061126e600435611b26565b346101f05760003660031901126101f05760405160008054611707816118b7565b808452906001908181169081156110ee5750600114611730576102bd8461108181860382611928565b600080805292507f290decd9548b62a8d60345a988386fc84ba6bc95484008f6362f93160ef3e5635b82841061177157505050810160200161108182611071565b80546020858701810191909152909301928101611759565b346101f05760203660031901126101f0576004359063ffffffff60e01b82168092036101f057602091632483248360e11b81149081156117cb575b5015158152f35b6380ac58cd60e01b8114915081156117fd575b81156117ec575b50836117c4565b6301ffc9a760e01b149050836117e5565b635b5e139f60e01b811491506117de565b60005b8381106118215750506000910152565b8181015183820152602001611811565b9060209161184a8151809281855285808601910161180e565b601f01601f1916010190565b600435906001600160a01b03821682036101f057565b602435906001600160a01b03821682036101f057565b60609060031901126101f0576001600160a01b039060043582811681036101f0579160243590811681036101f0579060443590565b90600182811c921680156118e7575b60208310146118d157565b634e487b7160e01b600052602260045260246000fd5b91607f16916118c6565b61010081019081106001600160401b038211176109a357604052565b602081019081106001600160401b038211176109a357604052565b90601f801991011681019081106001600160401b038211176109a357604052565b906040519182600082549261195d846118b7565b9081845260019485811690816000146119cc5750600114611989575b505061198792500383611928565b565b9093915060005260209081600020936000915b8183106119b457505061198793508201013880611979565b8554888401850152948501948794509183019161199c565b91505061198794506020925060ff191682840152151560051b8201013880611979565b6001600160401b0381116109a357601f01601f191660200190565b929192611a16826119ef565b91611a246040519384611928565b8294818452818301116101f0578281602093846000960137010152565b9080601f830112156101f057816020611a5c93359101611a0a565b90565b6007546001600160a01b03163303611a7357565b606460405162461bcd60e51b815260206004820152602060248201527f4f776e61626c653a2063616c6c6572206973206e6f7420746865206f776e65726044820152fd5b15611abe57565b60405162461bcd60e51b815260206004820152601860248201527f4552433732313a20696e76616c696420746f6b656e20494400000000000000006044820152606490fd5b6000908152600260205260409020546001600160a01b0316611a5c811515611ab7565b600081815260026020526040902054611b49906001600160a01b03161515611ab7565b6000908152600460205260409020546001600160a01b031690565b15611b6b57565b60405162461bcd60e51b815260206004820152602d60248201527f4552433732313a2063616c6c6572206973206e6f7420746f6b656e206f776e6560448201526c1c881bdc88185c1c1c9bdd9959609a1b6064820152608490fd5b90611bea939291611bda6113968433611c61565b611be5838383611d29565b611e3f565b15611bf157565b60405162461bcd60e51b815280611c0a60048201611c0e565b0390fd5b60809060208152603260208201527f4552433732313a207472616e7366657220746f206e6f6e20455243373231526560408201527131b2b4bb32b91034b6b83632b6b2b73a32b960711b60608201520190565b906001600160a01b038080611c7584611b03565b16931691838314938415611ca8575b508315611c92575b50505090565b611c9e91929350611b26565b1614388080611c8c565b909350600052600560205260406000208260005260205260ff604060002054169238611c84565b15611cd657565b60405162461bcd60e51b815260206004820152602560248201527f4552433732313a207472616e736665722066726f6d20696e636f72726563742060448201526437bbb732b960d91b6064820152608490fd5b90611d5191611d3784611b03565b6001600160a01b0393918416928492909183168414611ccf565b16918215611dee5781611d6e91611d6786611b03565b1614611ccf565b7fddf252ad1be2c89b69c2b068fc378daa952ba7f163c4a11628f55a4df523b3ef60008481526004602052604081206bffffffffffffffffffffffff60a01b9081815416905583825260036020526040822060001981540190558482526040822060018154019055858252600260205284604083209182541617905580a4565b60405162461bcd60e51b8152602060048201526024808201527f4552433732313a207472616e7366657220746f20746865207a65726f206164646044820152637265737360e01b6064820152608490fd5b92939190803b15611f5657611e91946040518092630a85bd0160e11b9485835233600484015260018060a01b03809816602484015260448301526080606483015281806020998a956084830190611831565b03916000988991165af1849181611f12575b50611f01575050503d600014611ef9573d611ebd816119ef565b90611ecb6040519283611928565b81528091833d92013e5b80519182611ef65760405162461bcd60e51b815280611c0a60048201611c0e565b01fd5b506060611ed5565b6001600160e01b0319161492509050565b9091508581813d8311611f4f575b611f2a8183611928565b81010312611f4b57516001600160e01b031981168103611f4b579038611ea3565b8480fd5b503d611f20565b5050915050600190565b15611f6757565b60405162461bcd60e51b815260206004820152601c60248201527f4552433732313a20746f6b656e20616c7265616479206d696e746564000000006044820152606490fd5b15611fb357565b60405162461bcd60e51b8152602060048201526014602482015273151bdad95b88191bd95cc81b9bdd08195e1a5cdd60621b6044820152606490fdfea264697066735822122045bbea91514b081b59f3b060c30de6161fcdb43e3c6046641155c576e1a5df5c64736f6c63430008140033",
  "linkReferences": {},
  "deployedLinkReferences": {}
}