{
  "_format": "hh-sol-artifact-1",
  "contractName": "ExamRegistration",
  "sourceName": "contracts/ExamRegistration.sol",
  "abi": [
    {
      "anonymous": false,
      "inputs": [
        {
          "indexed": true,
          "internalType": "address",
          "name": "student",
          "type": "address"
        },
        {
          "indexed": false,
          "internalType": "string",
          "name": "reason",
          "type": "string"
        },
        {
          "indexed": false,
          "internalType": "uint256",
          "name": "timestamp",
          "type": "uint256"
        }
      ],
      "name": "CheatingDetected",
      "type": "event"
    },
    {
      "anonymous": false,
      "inputs": [
        {
          "indexed": true,
          "internalType": "address",
          "name": "walletAddress",
          "type": "address"
        },
        {
          "indexed": false,
          "internalType": "string",
          "name": "studentId",
          "type": "string"
        },
        {
          "indexed": false,
          "internalType": "string",
          "name": "subject",
          "type": "string"
        },
        {
          "indexed": false,
          "internalType": "uint256",
          "name": "timestamp",
          "type": "uint256"
        }
      ],
      "name": "ExamCompleted",
      "type": "event"
    },
    {
      "anonymous": false,
      "inputs": [
        {
          "indexed": true,
          "internalType": "address",
          "name": "walletAddress",
          "type": "address"
        },
        {
          "indexed": false,
          "internalType": "string",
          "name": "studentId",
          "type": "string"
        },
        {
          "indexed": false,
          "internalType": "string",
          "name": "ipAddress",
          "type": "string"
        },
        {
          "indexed": false,
          "internalType": "string",
          "name": "imageHash",
          "type": "string"
        },
        {
          "indexed": false,
          "internalType": "uint256",
          "name": "timestamp",
          "type": "uint256"
        }
      ],
      "name": "IdentityVerified",
      "type": "event"
    },
    {
      "anonymous": false,
      "inputs": [
        {
          "indexed": true,
          "internalType": "address",
          "name": "previousOwner",
          "type": "address"
        },
        {
          "indexed": true,
          "internalType": "address",
          "name": "newOwner",
          "type": "address"
        }
      ],
      "name": "OwnershipTransferred",
      "type": "event"
    },
    {
      "anonymous": false,
      "inputs": [
        {
          "indexed": true,
          "internalType": "address",
          "name": "walletAddress",
          "type": "address"
        },
        {
          "indexed": false,
          "internalType": "string",
          "name": "studentId",
          "type": "string"
        },
        {
          "indexed": false,
          "internalType": "string",
          "name": "subject",
          "type": "string"
        },
        {
          "indexed": false,
          "internalType": "string",
          "name": "examSession",
          "type": "string"
        },
        {
          "indexed": false,
          "internalType": "uint256",
          "name": "timestamp",
          "type": "uint256"
        }
      ],
      "name": "StudentRegistered",
      "type": "event"
    },
    {
      "anonymous": false,
      "inputs": [
        {
          "indexed": true,
          "internalType": "address",
          "name": "studentAddress",
          "type": "address"
        },
        {
          "indexed": false,
          "internalType": "uint256",
          "name": "timestamp",
          "type": "uint256"
        }
      ],
      "name": "StudentRemovedFromWhitelist",
      "type": "event"
    },
    {
      "anonymous": false,
      "inputs": [
        {
          "indexed": true,
          "internalType": "address",
          "name": "studentAddress",
          "type": "address"
        },
        {
          "indexed": false,
          "internalType": "uint256",
          "name": "timestamp",
          "type": "uint256"
        }
      ],
      "name": "StudentWhitelisted",
      "type": "event"
    },
    {
      "inputs": [
        {
          "internalType": "address[]",
          "name": "_studentAddresses",
          "type": "address[]"
        }
      ],
      "name": "addMultipleStudentsToWhitelist",
      "outputs": [],
      "stateMutability": "nonpayable",
      "type": "function"
    },
    {
      "inputs": [
        {
          "internalType": "address",
          "name": "_studentAddress",
          "type": "address"
        }
      ],
      "name": "addStudentToWhitelist",
      "outputs": [],
      "stateMutability": "nonpayable",
      "type": "function"
    },
    {
      "inputs": [
        {
          "internalType": "address",
          "name": "_studentWallet",
          "type": "address"
        },
        {
          "internalType": "string",
          "name": "_subject",
          "type": "string"
        }
      ],
      "name": "completeExam",
      "outputs": [],
      "stateMutability": "nonpayable",
      "type": "function"
    },
    {
      "inputs": [],
      "name": "examCertificateNFT",
      "outputs": [
        {
          "internalType": "address",
          "name": "",
          "type": "address"
        }
      ],
      "stateMutability": "view",
      "type": "function"
    },
    {
      "inputs": [
        {
          "internalType": "address",
          "name": "student",
          "type": "address"
        }
      ],
      "name": "getRegisteredSubjects",
      "outputs": [
        {
          "internalType": "string[]",
          "name": "",
          "type": "string[]"
        }
      ],
      "stateMutability": "view",
      "type": "function"
    },
    {
      "inputs": [
        {
          "internalType": "address",
          "name": "wallet",
          "type": "address"
        }
      ],
      "name": "getStudentIdByWallet",
      "outputs": [
        {
          "internalType": "string",
          "name": "",
          "type": "string"
        }
      ],
      "stateMutability": "view",
      "type": "function"
    },
    {
      "inputs": [
        {
          "internalType": "address",
          "name": "_walletAddress",
          "type": "address"
        },
        {
          "internalType": "string",
          "name": "_subject",
          "type": "string"
        }
      ],
      "name": "getStudentInfo",
      "outputs": [
        {
          "components": [
            {
              "internalType": "string",
              "name": "studentId",
              "type": "string"
            },
            {
              "internalType": "string",
              "name": "subject",
              "type": "string"
            },
            {
              "internalType": "string",
              "name": "examSession",
              "type": "string"
            },
            {
              "internalType": "address",
              "name": "walletAddress",
              "type": "address"
            },
            {
              "internalType": "bool",
              "name": "isRegistered",
              "type": "bool"
            },
            {
              "internalType": "bool",
              "name": "isVerified",
              "type": "bool"
            },
            {
              "internalType": "uint256",
              "name": "registrationTime",
              "type": "uint256"
            },
            {
              "internalType": "uint256",
              "name": "verificationTime",
              "type": "uint256"
            }
          ],
          "internalType": "struct ExamRegistration.Student",
          "name": "",
          "type": "tuple"
        }
      ],
      "stateMutability": "view",
      "type": "function"
    },
    {
      "inputs": [
        {
          "internalType": "address",
          "name": "_walletAddress",
          "type": "address"
        }
      ],
      "name": "getVerificationLogs",
      "outputs": [
        {
          "components": [
            {
              "internalType": "address",
              "name": "studentWallet",
              "type": "address"
            },
            {
              "internalType": "string",
              "name": "studentId",
              "type": "string"
            },
            {
              "internalType": "string",
              "name": "ipAddress",
              "type": "string"
            },
            {
              "internalType": "string",
              "name": "imageHash",
              "type": "string"
            },
            {
              "internalType": "uint256",
              "name": "timestamp",
              "type": "uint256"
            },
            {
              "internalType": "bool",
              "name": "success",
              "type": "bool"
            }
          ],
          "internalType": "struct ExamRegistration.VerificationLog[]",
          "name": "",
          "type": "tuple[]"
        }
      ],
      "stateMutability": "view",
      "type": "function"
    },
    {
      "inputs": [],
      "name": "getWhitelistedAddresses",
      "outputs": [
        {
          "internalType": "address[]",
          "name": "",
          "type": "address[]"
        }
      ],
      "stateMutability": "view",
      "type": "function"
    },
    {
      "inputs": [
        {
          "internalType": "address",
          "name": "",
          "type": "address"
        }
      ],
      "name": "isCheater",
      "outputs": [
        {
          "internalType": "bool",
          "name": "",
          "type": "bool"
        }
      ],
      "stateMutability": "view",
      "type": "function"
    },
    {
      "inputs": [
        {
          "internalType": "address",
          "name": "student",
          "type": "address"
        }
      ],
      "name": "isStudentCheater",
      "outputs": [
        {
          "internalType": "bool",
          "name": "",
          "type": "bool"
        }
      ],
      "stateMutability": "view",
      "type": "function"
    },
    {
      "inputs": [
        {
          "internalType": "address",
          "name": "_walletAddress",
          "type": "address"
        },
        {
          "internalType": "string",
          "name": "_subject",
          "type": "string"
        }
      ],
      "name": "isStudentRegistered",
      "outputs": [
        {
          "internalType": "bool",
          "name": "",
          "type": "bool"
        }
      ],
      "stateMutability": "view",
      "type": "function"
    },
    {
      "inputs": [
        {
          "internalType": "address",
          "name": "_walletAddress",
          "type": "address"
        },
        {
          "internalType": "string",
          "name": "_subject",
          "type": "string"
        }
      ],
      "name": "isStudentVerified",
      "outputs": [
        {
          "internalType": "bool",
          "name": "",
          "type": "bool"
        }
      ],
      "stateMutability": "view",
      "type": "function"
    },
    {
      "inputs": [
        {
          "internalType": "address",
          "name": "_studentAddress",
          "type": "address"
        }
      ],
      "name": "isStudentWhitelisted",
      "outputs": [
        {
          "internalType": "bool",
          "name": "",
          "type": "bool"
        }
      ],
      "stateMutability": "view",
      "type": "function"
    },
    {
      "inputs": [
        {
          "internalType": "address",
          "name": "_studentWallet",
          "type": "address"
        },
        {
          "internalType": "string",
          "name": "_ipAddress",
          "type": "string"
        },
        {
          "internalType": "string",
          "name": "_imageHash",
          "type": "string"
        },
        {
          "internalType": "string",
          "name": "_reason",
          "type": "string"
        }
      ],
      "name": "logFailedVerification",
      "outputs": [],
      "stateMutability": "nonpayable",
      "type": "function"
    },
    {
      "inputs": [
        {
          "internalType": "address",
          "name": "student",
          "type": "address"
        },
        {
          "internalType": "string",
          "name": "reason",
          "type": "string"
        }
      ],
      "name": "markCheating",
      "outputs": [],
      "stateMutability": "nonpayable",
      "type": "function"
    },
    {
      "inputs": [],
      "name": "owner",
      "outputs": [
        {
          "internalType": "address",
          "name": "",
          "type": "address"
        }
      ],
      "stateMutability": "view",
      "type": "function"
    },
    {
      "inputs": [
        {
          "internalType": "string",
          "name": "_studentId",
          "type": "string"
        },
        {
          "internalType": "string",
          "name": "_subject",
          "type": "string"
        },
        {
          "internalType": "string",
          "name": "_examSession",
          "type": "string"
        }
      ],
      "name": "registerForExam",
      "outputs": [],
      "stateMutability": "nonpayable",
      "type": "function"
    },
    {
      "inputs": [
        {
          "internalType": "address",
          "name": "",
          "type": "address"
        },
        {
          "internalType": "uint256",
          "name": "",
          "type": "uint256"
        }
      ],
      "name": "registeredSubjects",
      "outputs": [
        {
          "internalType": "string",
          "name": "",
          "type": "string"
        }
      ],
      "stateMutability": "view",
      "type": "function"
    },
    {
      "inputs": [
        {
          "internalType": "address",
          "name": "_studentAddress",
          "type": "address"
        }
      ],
      "name": "removeStudentFromWhitelist",
      "outputs": [],
      "stateMutability": "nonpayable",
      "type": "function"
    },
    {
      "inputs": [],
      "name": "renounceOwnership",
      "outputs": [],
      "stateMutability": "nonpayable",
      "type": "function"
    },
    {
      "inputs": [
        {
          "internalType": "address",
          "name": "_nft",
          "type": "address"
        }
      ],
      "name": "setExamCertificateNFT",
      "outputs": [],
      "stateMutability": "nonpayable",
      "type": "function"
    },
    {
      "inputs": [
        {
          "internalType": "string",
          "name": "",
          "type": "string"
        }
      ],
      "name": "studentIdToWallet",
      "outputs": [
        {
          "internalType": "address",
          "name": "",
          "type": "address"
        }
      ],
      "stateMutability": "view",
      "type": "function"
    },
    {
      "inputs": [
        {
          "internalType": "address",
          "name": "",
          "type": "address"
        },
        {
          "internalType": "string",
          "name": "",
          "type": "string"
        }
      ],
      "name": "students",
      "outputs": [
        {
          "internalType": "string",
          "name": "studentId",
          "type": "string"
        },
        {
          "internalType": "string",
          "name": "subject",
          "type": "string"
        },
        {
          "internalType": "string",
          "name": "examSession",
          "type": "string"
        },
        {
          "internalType": "address",
          "name": "walletAddress",
          "type": "address"
        },
        {
          "internalType": "bool",
          "name": "isRegistered",
          "type": "bool"
        },
        {
          "internalType": "bool",
          "name": "isVerified",
          "type": "bool"
        },
        {
          "internalType": "uint256",
          "name": "registrationTime",
          "type": "uint256"
        },
        {
          "internalType": "uint256",
          "name": "verificationTime",
          "type": "uint256"
        }
      ],
      "stateMutability": "view",
      "type": "function"
    },
    {
      "inputs": [
        {
          "internalType": "address",
          "name": "newOwner",
          "type": "address"
        }
      ],
      "name": "transferOwnership",
      "outputs": [],
      "stateMutability": "nonpayable",
      "type": "function"
    },
    {
      "inputs": [
        {
          "internalType": "address",
          "name": "student",
          "type": "address"
        }
      ],
      "name": "unmarkCheating",
      "outputs": [],
      "stateMutability": "nonpayable",
      "type": "function"
    },
    {
      "inputs": [
        {
          "internalType": "address",
          "name": "",
          "type": "address"
        },
        {
          "internalType": "uint256",
          "name": "",
          "type": "uint256"
        }
      ],
      "name": "verificationLogs",
      "outputs": [
        {
          "internalType": "address",
          "name": "studentWallet",
          "type": "address"
        },
        {
          "internalType": "string",
          "name": "studentId",
          "type": "string"
        },
        {
          "internalType": "string",
          "name": "ipAddress",
          "type": "string"
        },
        {
          "internalType": "string",
          "name": "imageHash",
          "type": "string"
        },
        {
          "internalType": "uint256",
          "name": "timestamp",
          "type": "uint256"
        },
        {
          "internalType": "bool",
          "name": "success",
          "type": "bool"
        }
      ],
      "stateMutability": "view",
      "type": "function"
    },
    {
      "inputs": [
        {
          "internalType": "string",
          "name": "_subject",
          "type": "string"
        },
        {
          "internalType": "string",
          "name": "_ipAddress",
          "type": "string"
        },
        {
          "internalType": "string",
          "name": "_imageHash",
          "type": "string"
        }
      ],
      "name": "verifyIdentity",
      "outputs": [],
      "stateMutability": "nonpayable",
      "type": "function"
    },
    {
      "inputs": [],
      "name": "whitelistCount",
      "outputs": [
        {
          "internalType": "uint256",
          "name": "",
          "type": "uint256"
        }
      ],
      "stateMutability": "view",
      "type": "function"
    },
    {
      "inputs": [
        {
          "internalType": "uint256",
          "name": "",
          "type": "uint256"
        }
      ],
      "name": "whitelistedAddresses",
      "outputs": [
        {
          "internalType": "address",
          "name": "",
          "type": "address"
        }
      ],
      "stateMutability": "view",
      "type": "function"
    },
    {
      "inputs": [
        {
          "internalType": "address",
          "name": "",
          "type": "address"
        }
      ],
      "name": "whitelistedStudents",
      "outputs": [
        {
          "internalType": "bool",
          "name": "",
          "type": "bool"
        }
      ],
      "stateMutability": "view",
      "type": "function"
    }
  ],
  "bytecode": "0x6080806040523461005f5760008054336001600160a01b0319821681178355916001600160a01b03909116907f8be0079c531659141344cd1fd0a4f28419497f9722a3daafe3b4186f6b6457e09080a36001805561228290816100658239f35b600080fdfe6040608081526004908136101561001557600080fd5b60009160e08335811c9081630326f093146119d3578163171f74a7146118875781631a21ff96146117a6578163294f0c0f146116c55781632f1e9a97146114da578163400073781461145c578163455065a414610c225781634c2f828d1461143157816356b8d22b146113ed5781636d0280271461132857816370ba913c146112be578163715018a61461126457816374eb384f1461114b578163822ca67514610fb957816386ab09e614610f785781638717b15414610eb55781638da5cb5b14610e8c578163a36347071461032b578163a63e57d114610e62578163b1e978c714610c61578163b2dc163114610c22578163b82c056b14610b99578163ba4e5c4914610b58578163c0fb7ea7146109fa578163c89f7fb114610489578163ccd38cc81461044a578163d3f974751461036a578163d68cc1291461032b578163d9fa382e1461026157508063f2624b5d1461023e5763f2fde38b1461017957600080fd5b3461023a57602036600319011261023a57610192611a3f565b9061019b611da8565b6001600160a01b039182169283156101e857505082546001600160a01b0319811683178455167f8be0079c531659141344cd1fd0a4f28419497f9722a3daafe3b4186f6b6457e08380a380f35b906020608492519162461bcd60e51b8352820152602660248201527f4f776e61626c653a206e6577206f776e657220697320746865207a65726f206160448201526564647265737360d01b6064820152fd5b8280fd5b50503461025d578160031936011261025d576020906006549051908152f35b5080fd5b8285853461025d576102e4936102968261027a36611d26565b6001600160a01b03918216875260026020529190952090611d66565b60ff6102a182611b6a565b956102ff6102b160018501611b6a565b956102be60028601611b6a565b6102f260056003880154958801549701549883519c8d9c8d610100908181520190611c33565b8c810360208e015290611c33565b918a8303908b0152611c33565b9581166060880152818160a01c161515608088015260a81c16151560a086015260c08501528301520390f35b5050503461025d57602036600319011261025d5760209160ff9082906001600160a01b03610357611a3f565b1681526005855220541690519015158152f35b8385346104475760208060031936011261025d57906001600160a01b0361038f611a3f565b168152600982528281209081546103a581611c58565b906103b286519283611b48565b8082528482018094845285842084915b83831061042357505050508451938085019181865251809252858501958260051b8601019392955b8287106103f75785850386f35b909192938280610413600193603f198a82030186528851611c33565b96019201960195929190926103ea565b6001888192610435859b98999b611b6a565b815201920192019190969493966103c2565b80fd5b5050503461025d57602036600319011261025d576104859061047261046d611a3f565b612142565b9051918291602083526020830190611c33565b0390f35b929050346109f65761049a36611cc7565b9193903387526020916005835260ff8589205416156109b35760019660028854146109705760028855338952600884526104da60ff878b20541615611e00565b86511561092d578251156108ea578451156108a7573389526002845260039060ff82610508898d2087611d66565b015460a01c16610858578651885191868a0192610526818486611c10565b82018481528290038701909120546001600160a01b0391908216158015610831575b156107ee57908987809493888f8f908d8f9283519761056689611b2b565b8852868801858152848901928352606089019533875260808a019583875260a08b019580875260c08c0199428b528c019a818c5233825260029052206105ab91611d66565b98516105b7908a611e56565b516105c3918901611e56565b516105d19060028801611e56565b868a870193511683549260ff60a01b9051151560a01b169160ff60a81b9051151560a81b169269ffffffffffffffffffff60b01b1617171790555187830155519060050155885183818c51610627818388611c10565b8101878152030190205416156107b9575b5050508787808a868601915b610753575b505050156106be575b509161069f84926106ac946106927ff4bf48584272e59a9f5fa6a68a23cc3d507b14a15d69344fbf5babcc4625fdb397519860808a5260808a0190611c33565b9188830390890152611c33565b9185830390860152611c33565b914260608201528033930390a2805580f35b33885260098352848820805490600160401b82101561074057906106e6918982018155611aa7565b91909161072e57507ff4bf48584272e59a9f5fa6a68a23cc3d507b14a15d69344fbf5babcc4625fdb39492826107236106ac969461069f94611e56565b929450929450610652565b634e487b7160e01b8952889052602488fd5b634e487b7160e01b8a526041835260248afd5b338c5260098752888c2080548210156107b3576107896107768361078293611aa7565b508b5192838092611f8b565b0382611b48565b87815191012086518320146107a7576107a190611f66565b82610644565b50509050873880610649565b50610649565b6107cd928851809481938c51928391611c10565b82019081520301902080546001600160a01b03191633179055388381610638565b885162461bcd60e51b8152808601889052601d60248201527f53747564656e7420494420616c726561647920726567697374657265640000006044820152606490fd5b508851828b51610842818488611c10565b8201918683528981339403019020541614610548565b865162461bcd60e51b8152808401869052602360248201527f416c7265616479207265676973746572656420666f722074686973207375626a6044820152621958dd60ea1b6064820152608490fd5b855162461bcd60e51b8152808301859052601c60248201527f4578616d2073657373696f6e2063616e6e6f7420626520656d707479000000006044820152606490fd5b855162461bcd60e51b8152808301859052601760248201527f5375626a6563742063616e6e6f7420626520656d7074790000000000000000006044820152606490fd5b855162461bcd60e51b8152808301859052601a60248201527f53747564656e742049442063616e6e6f7420626520656d7074790000000000006044820152606490fd5b855162461bcd60e51b8152808301859052601f60248201527f5265656e7472616e637947756172643a207265656e7472616e742063616c6c006044820152606490fd5b845162461bcd60e51b8152908101839052601760248201527f53747564656e74206e6f742077686974656c69737465640000000000000000006044820152606490fd5b8380fd5b9050346109f657610a6393602091610a1136611d26565b86809892985194610a2186611b2b565b8085606097888152888a820152888582015282898201528260808201528260a08201528260c0820152015260018060a01b03809a168152600287522090611d66565b938551958691610a7283611b2b565b610a7b87611b6a565b8352610a8960018801611b6a565b98868401998a52610b32610a9f60028a01611b6a565b84860190815260038a01549460058988019b8588168d5260c060808a019760ff8a60a01c161515895260ff60a08c019a60a81c1615158a528201549901988952015498888d01998a52610b2282519e8f9e8f9d8e52519c610b0e6101009e8f6020840152610120830190611c33565b915190601f19958682850301910152611c33565b9251918d840301908d0152611c33565b975116608089015251151560a088015251151560c0870152519085015251908301520390f35b50503461023a57602036600319011261023a5735916007548310156104475750610b83602092611a5a565b905491519160018060a01b039160031b1c168152f35b50503461023a57602036600319011261023a57610bb4611a3f565b610bbc611da8565b6001600160a01b0316918215610be95750506bffffffffffffffffffffffff60a01b600a541617600a5580f35b906020606492519162461bcd60e51b83528201526013602482015272496e76616c6964204e4654206164647265737360681b6044820152fd5b5050503461025d57602036600319011261025d5760209160ff9082906001600160a01b03610c4e611a3f565b1681526008855220541690519015158152f35b5050903461023a57602036600319011261023a57610c7d611a3f565b90610c86611da8565b6001600160a01b0391821691610c9d8315156120cd565b828552600560205260ff828620541615610e1f578285526005602052818520805460ff19169055600654938415610e0c57600019948501600655855b6007805480831015610ddb5790849187610cf285611a5a565b949054600395861b1c1614610d1257505050610d0d90611f66565b610cd9565b888199949296959397989901908111610dc85790610d4385610d36610d6294611a5a565b9054908a1b1c1691611a5a565b90919082549060031b9160018060a01b03809116831b921b1916179055565b8354908115610db55750917fcf93b2b3dfdac220dba8852e4b33f18dcafd9eecfd8ac13b8b104361ce28cd52959391602095930192610da084611a5a565b81939154921b1b19169055555b51428152a280f35b634e487b7160e01b895260319052602488fd5b634e487b7160e01b8a526011835260248afd5b50505050507fcf93b2b3dfdac220dba8852e4b33f18dcafd9eecfd8ac13b8b104361ce28cd52919250602090610dad565b634e487b7160e01b865260119052602485fd5b815162461bcd60e51b8152602081860152601860248201527f53747564656e74206e6f7420696e2077686974656c69737400000000000000006044820152606490fd5b5050503461025d578160031936011261025d57600a5490516001600160a01b039091168152602090f35b5050503461025d578160031936011261025d57905490516001600160a01b039091168152602090f35b50509134610447578160031936011261044757610ed0611a3f565b6001600160a01b03908116825260208490528282208054919260243592831015610447575090610eff91611d8c565b509081541691610f67610f1460018401611b6a565b94610f59610f2460028601611b6a565b9360ff6005610f3560038901611b6a565b9488015497015416946106928251998a998a5260c060208b015260c08a0190611c33565b908582036060870152611c33565b916080840152151560a08301520390f35b5050503461025d57602036600319011261025d57610f94611a3f565b610f9c611da8565b6001600160a01b0316825260086020528120805460ff1916905580f35b50508234610447576020918260031936011261025d576001600160a01b0392919083610fe3611a3f565b168252808352848220928354610ff881611c58565b9261100588519485611b48565b81845282840190819686528386209086925b898b8686106110d557955050505050505194818601928287525180935286860190878460051b8801019594975b8489106110515787870388f35b9091929394958480600192603f198b82030187528951908682511681526110ad61109a61108a8585015160c08088870152850190611c33565b888501518482038a860152611c33565b6060808501519084830390850152611c33565b916080808201519083015260a080910151151591015298019401980197919094939294611044565b9660019260069289839b9c9a51916110ec83611af9565b88541682526110fc868901611b6a565b8483015261110c60028901611b6a565b9082015261111c60038801611b6a565b606082015285870154608082015260ff600588015416151560a082015281520193019301929196959496611017565b5050903461023a5761115c36611d26565b9190611166611da8565b60018060a01b0316928385526020906008825261118960ff848820541615611e00565b8486526002825260ff60036111a085892087611d66565b015460a81c161561122c575091611213916112207fb69d0970a6880eb9304bc24cdc3ee5750a889eda475648e525fd88b55ecf61f8948688526002815260016111ff6111ee858b2087611d66565b95898b5260028452858b2090611d66565b018351958695606087526060870190611f8b565b9185830390860152611f8b565b9042908301520390a280f35b915162461bcd60e51b815291820152601460248201527314dd1d59195b9d081b9bdd081d995c9a599a595960621b6044820152606490fd5b843461044757806003193601126104475761127d611da8565b80546001600160a01b03198116825581906001600160a01b03167f8be0079c531659141344cd1fd0a4f28419497f9722a3daafe3b4186f6b6457e08280a380f35b505091346104475760203660031901126104475782359067ffffffffffffffff821161044757506020926112f491369101611c70565b8261130783519283815193849201611c10565b6003908201908152819003830190205490516001600160a01b039091168152f35b8385346104475780600319360112610447579080519182906007549182855260208095018093600784527fa66cc928b5edb82af9bd49922954155ab7b0942694bea4ce44661d9a8736c68890845b8181106113d0575050508161138c910382611b48565b83519485948186019282875251809352850193925b8281106113b057505050500390f35b83516001600160a01b0316855286955093810193928101926001016113a1565b82546001600160a01b031684529288019260019283019201611376565b5050503461025d5760ff60036114226020948461140936611d26565b6001600160a01b03909116835260028852912090611d66565b015460a01c1690519015158152f35b5050503461025d5760ff600361144d6020948461140936611d26565b015460a81c1690519015158152f35b5050503461025d577fd5c7fc3a725f2aa62775c210bb343b8e77ec728f90a50c63a6446c3334f3ac4a61148e36611d26565b90611497611da8565b6001600160a01b03168085526008602052838520805460ff1916600117905583518481529093909182916114ce9190830190611c33565b4260208301520390a280f35b5050903461023a576114eb36611cc7565b91939093338652600260209281845260ff600361150a888b2086611d66565b015460a01c1615611689573388526008845261152c60ff878a20541615611e00565b33885281845260ff6003611542888b2086611d66565b015460a81c166116465792611621611636959361069f9361161389976115d17f81f2525538d86ec8f1ac128595fd27d0a17d4a0fe5608c73d15c5f0dc6b7fb6b9b8e338152858952600361159883832089611d66565b01805460ff60a81b1916600160a81b17905533815285895281812042906005906115c2908a611d66565b01553381528589522085611d66565b906115e98a51926115e184611af9565b338452611b6a565b878301528c8a830152886060830152426080830152600160a08301528d3390528652888d20612021565b338b528352858a2090611d66565b9661069285519860808a5260808a0190611f8b565b914260608201528033930390a280f35b855162461bcd60e51b8152908101849052601860248201527f53747564656e7420616c726561647920766572696669656400000000000000006044820152606490fd5b855162461bcd60e51b8152908101849052601660248201527514dd1d59195b9d081b9bdd081c9959da5cdd195c995960521b6044820152606490fd5b5050903461023a57602036600319011261023a576116e1611a3f565b6116e9611da8565b6001600160a01b038116926116ff8415156120cd565b838552600560205260ff838620541661176357507f1d2095e5884c4a3055f14754468671ab64277c270db301c341c45baf89761e2491610dad60209285875260058452828720600160ff1982541617905561175b600654611f66565b60065561210b565b606490602084519162461bcd60e51b8352820152601b60248201527f53747564656e7420616c72656164792077686974656c697374656400000000006044820152fd5b5050903461023a57608036600319011261023a576117c2611a3f565b906024359267ffffffffffffffff93848111611883576117e59036908301611c70565b9260443585811161187f576117fd9036908401611c70565b60643595861161187f5761183e61181a61187c9736908601611c70565b92611823611da8565b6001600160a01b031680895260026020528589209093611d66565b9461185685519661184e88611af9565b848852611b6a565b60208701528486015260608501524260808501528560a085015285526020528320612021565b80f35b8680fd5b8580fd5b5050913461044757602090816003193601126104475783359367ffffffffffffffff851161025d573660238601121561025d57840135916118c783611c58565b946118d485519687611b48565b8386528186016024600595861b830101913683116119cf57602401905b8282106119b057505050611903611da8565b815b85518110156119ac5761193a906001600160a01b03611924828961212e565b511680151580611998575b61193f575b50611f66565b611905565b808552858452868520600160ff19825416179055600661195f8154611f66565b905561196a8161210b565b7f1d2095e5884c4a3055f14754468671ab64277c270db301c341c45baf89761e24848851428152a238611934565b5080855285845260ff87862054161561192f565b8280f35b81356001600160a01b03811681036118835781529083019083016118f1565b8480fd5b505091346104475781600319360112610447576119ee611a3f565b6001600160a01b0316815260096020528181208054602435919082101561023a5790611a1991611aa7565b939093611a2d576104858361047286611b6a565b634e487b7160e01b8252819052602490fd5b600435906001600160a01b0382168203611a5557565b600080fd5b600754811015611a915760076000527fa66cc928b5edb82af9bd49922954155ab7b0942694bea4ce44661d9a8736c6880190600090565b634e487b7160e01b600052603260045260246000fd5b8054821015611a915760005260206000200190600090565b90600182811c92168015611aef575b6020831014611ad957565b634e487b7160e01b600052602260045260246000fd5b91607f1691611ace565b60c0810190811067ffffffffffffffff821117611b1557604052565b634e487b7160e01b600052604160045260246000fd5b610100810190811067ffffffffffffffff821117611b1557604052565b90601f8019910116810190811067ffffffffffffffff821117611b1557604052565b9060405191826000825492611b7e84611abf565b908184526001948581169081600014611bed5750600114611baa575b5050611ba892500383611b48565b565b9093915060005260209081600020936000915b818310611bd5575050611ba893508201013880611b9a565b85548884018501529485019487945091830191611bbd565b915050611ba894506020925060ff191682840152151560051b8201013880611b9a565b60005b838110611c235750506000910152565b8181015183820152602001611c13565b90602091611c4c81518092818552858086019101611c10565b601f01601f1916010190565b67ffffffffffffffff8111611b155760051b60200190565b81601f82011215611a555780359067ffffffffffffffff8211611b155760405192611ca5601f8401601f191660200185611b48565b82845260208383010111611a5557816000926020809301838601378301015290565b6060600319820112611a555767ffffffffffffffff91600435838111611a555782611cf491600401611c70565b92602435818111611a555783611d0c91600401611c70565b92604435918211611a5557611d2391600401611c70565b90565b906040600319830112611a55576004356001600160a01b0381168103611a5557916024359067ffffffffffffffff8211611a5557611d2391600401611c70565b602090611d80928260405194838680955193849201611c10565b82019081520301902090565b8054821015611a91576000526006602060002091020190600090565b6000546001600160a01b03163303611dbc57565b606460405162461bcd60e51b815260206004820152602060248201527f4f776e61626c653a2063616c6c6572206973206e6f7420746865206f776e65726044820152fd5b15611e0757565b60405162461bcd60e51b815260206004820152602160248201527f4368656174696e672064657465637465643a20616374696f6e20626c6f636b656044820152601960fa1b6064820152608490fd5b919091825167ffffffffffffffff8111611b1557611e748254611abf565b601f8111611f1e575b50602080601f8311600114611eba575081929394600092611eaf575b50508160011b916000199060031b1c1916179055565b015190503880611e99565b90601f198316958460005282600020926000905b888210611f0657505083600195969710611eed575b505050811b019055565b015160001960f88460031b161c19169055388080611ee3565b80600185968294968601518155019501930190611ece565b600083815260208120601f840160051c81019260208510611f5c575b601f0160051c01915b828110611f51575050611e7d565b818155600101611f43565b9092508290611f3a565b6000198114611f755760010190565b634e487b7160e01b600052601160045260246000fd5b9060009291805491611f9c83611abf565b918282526001938481169081600014611ffe5750600114611fbe575b50505050565b90919394506000526020928360002092846000945b838610611fea575050505001019038808080611fb8565b805485870183015294019385908201611fd3565b9294505050602093945060ff191683830152151560051b01019038808080611fb8565b8054600160401b811015611b155761203e91600182018155611d8c565b6120b757815181546001600160a01b0319166001600160a01b0391909116178155602082015160a0916005916120779060018301611e56565b612088604085015160028301611e56565b612099606085015160038301611e56565b6080840151600482015501910151151560ff80198354169116179055565b634e487b7160e01b600052600060045260246000fd5b156120d457565b60405162461bcd60e51b815260206004820152600f60248201526e496e76616c6964206164647265737360881b6044820152606490fd5b60075490600160401b821015611b1557610d43826001611ba89401600755611a5a565b8051821015611a915760209160051b010190565b60018060a01b031690600090828252602060098152604080842093845461216881611c58565b9561217584519788611b48565b81875282528382208290858089015b84841061222e575050505050805b85518110156121f4576121a5818761212e565b51878352600280865260ff60036121be87872085611d66565b015460a01c166121d85750506121d390611f66565b612192565b915093611d2396506121ef95978352522090611d66565b611b6a565b5092945090925080519283019083821067ffffffffffffffff83111761221a5752815290565b634e487b7160e01b83526041600452602483fd5b600191829161223c85611b6a565b815201920192019190869061218456fea2646970667358221220a0d6474d1808594098b4ce90d079d857798571798c881541b82b0e2e309b013d64736f6c63430008140033",
  "linkReferences": {},
  "deployedLinkReferences": {}
}