{
  "_format": "hh-sol-artifact-1",
  "contractName": "ExamCertificateNFT",
  "sourceName": "contracts/ExamCertificateNFT.sol",
  "abi": [
    {
      "inputs": [],
      "stateMutability": "nonpayable",
      "type": "constructor"
    },
    {
      "anonymous": false,
      "inputs": [
        {
          "indexed": true,
          "internalType": "address",
          "name": "owner",
          "type": "address"
        },
        {
          "indexed": true,
          "internalType": "address",
          "name": "approved",
          "type": "address"
        },
        {
          "indexed": true,
          "internalType": "uint256",
          "name": "tokenId",
          "type": "uint256"
        }
      ],
      "name": "Approval",
      "type": "event"
    },
    {
      "anonymous": false,
      "inputs": [
        {
          "indexed": true,
          "internalType": "address",
          "name": "owner",
          "type": "address"
        },
        {
          "indexed": true,
          "internalType": "address",
          "name": "operator",
          "type": "address"
        },
        {
          "indexed": false,
          "internalType": "bool",
          "name": "approved",
          "type": "bool"
        }
      ],
      "name": "ApprovalForAll",
      "type": "event"
    },
    {
      "anonymous": false,
      "inputs": [
        {
          "indexed": false,
          "internalType": "uint256",
          "name": "_fromTokenId",
          "type": "uint256"
        },
        {
          "indexed": false,
          "internalType": "uint256",
          "name": "_toTokenId",
          "type": "uint256"
        }
      ],
      "name": "BatchMetadataUpdate",
      "type": "event"
    },
    {
      "anonymous": false,
      "inputs": [
        {
          "indexed": true,
          "internalType": "uint256",
          "name": "tokenId",
          "type": "uint256"
        },
        {
          "indexed": true,
          "internalType": "address",
          "name": "studentWallet",
          "type": "address"
        },
        {
          "indexed": false,
          "internalType": "string",
          "name": "studentId",
          "type": "string"
        },
        {
          "indexed": false,
          "internalType": "string",
          "name": "subject",
          "type": "string"
        },
        {
          "indexed": false,
          "internalType": "uint256",
          "name": "examDate",
          "type": "uint256"
        },
        {
          "indexed": false,
          "internalType": "uint256",
          "name": "score",
          "type": "uint256"
        }
      ],
      "name": "CertificateMinted",
      "type": "event"
    },
    {
      "anonymous": false,
      "inputs": [
        {
          "indexed": true,
          "internalType": "uint256",
          "name": "tokenId",
          "type": "uint256"
        },
        {
          "indexed": true,
          "internalType": "address",
          "name": "studentWallet",
          "type": "address"
        },
        {
          "indexed": false,
          "internalType": "string",
          "name": "reason",
          "type": "string"
        }
      ],
      "name": "CertificateRevoked",
      "type": "event"
    },
    {
      "anonymous": false,
      "inputs": [
        {
          "indexed": false,
          "internalType": "uint256",
          "name": "_tokenId",
          "type": "uint256"
        }
      ],
      "name": "MetadataUpdate",
      "type": "event"
    },
    {
      "anonymous": false,
      "inputs": [
        {
          "indexed": true,
          "internalType": "address",
          "name": "previousOwner",
          "type": "address"
        },
        {
          "indexed": true,
          "internalType": "address",
          "name": "newOwner",
          "type": "address"
        }
      ],
      "name": "OwnershipTransferred",
      "type": "event"
    },
    {
      "anonymous": false,
      "inputs": [
        {
          "indexed": true,
          "internalType": "address",
          "name": "from",
          "type": "address"
        },
        {
          "indexed": true,
          "internalType": "address",
          "name": "to",
          "type": "address"
        },
        {
          "indexed": true,
          "internalType": "uint256",
          "name": "tokenId",
          "type": "uint256"
        }
      ],
      "name": "Transfer",
      "type": "event"
    },
    {
      "inputs": [
        {
          "internalType": "address",
          "name": "to",
          "type": "address"
        },
        {
          "internalType": "uint256",
          "name": "tokenId",
          "type": "uint256"
        }
      ],
      "name": "approve",
      "outputs": [],
      "stateMutability": "nonpayable",
      "type": "function"
    },
    {
      "inputs": [
        {
          "internalType": "address",
          "name": "owner",
          "type": "address"
        }
      ],
      "name": "balanceOf",
      "outputs": [
        {
          "internalType": "uint256",
          "name": "",
          "type": "uint256"
        }
      ],
      "stateMutability": "view",
      "type": "function"
    },
    {
      "inputs": [
        {
          "internalType": "uint256",
          "name": "",
          "type": "uint256"
        }
      ],
      "name": "examInfo",
      "outputs": [
        {
          "internalType": "string",
          "name": "studentId",
          "type": "string"
        },
        {
          "internalType": "string",
          "name": "subject",
          "type": "string"
        },
        {
          "internalType": "string",
          "name": "examSession",
          "type": "string"
        },
        {
          "internalType": "uint256",
          "name": "examDate",
          "type": "uint256"
        },
        {
          "internalType": "uint256",
          "name": "verificationTime",
          "type": "uint256"
        },
        {
          "internalType": "string",
          "name": "ipAddress",
          "type": "string"
        },
        {
          "internalType": "bool",
          "name": "isValid",
          "type": "bool"
        },
        {
          "internalType": "uint256",
          "name": "score",
          "type": "uint256"
        }
      ],
      "stateMutability": "view",
      "type": "function"
    },
    {
      "inputs": [
        {
          "internalType": "uint256",
          "name": "tokenId",
          "type": "uint256"
        }
      ],
      "name": "getApproved",
      "outputs": [
        {
          "internalType": "address",
          "name": "",
          "type": "address"
        }
      ],
      "stateMutability": "view",
      "type": "function"
    },
    {
      "inputs": [
        {
          "internalType": "uint256",
          "name": "_tokenId",
          "type": "uint256"
        }
      ],
      "name": "getExamInfo",
      "outputs": [
        {
          "components": [
            {
              "internalType": "string",
              "name": "studentId",
              "type": "string"
            },
            {
              "internalType": "string",
              "name": "subject",
              "type": "string"
            },
            {
              "internalType": "string",
              "name": "examSession",
              "type": "string"
            },
            {
              "internalType": "uint256",
              "name": "examDate",
              "type": "uint256"
            },
            {
              "internalType": "uint256",
              "name": "verificationTime",
              "type": "uint256"
            },
            {
              "internalType": "string",
              "name": "ipAddress",
              "type": "string"
            },
            {
              "internalType": "bool",
              "name": "isValid",
              "type": "bool"
            },
            {
              "internalType": "uint256",
              "name": "score",
              "type": "uint256"
            }
          ],
          "internalType": "struct ExamCertificateNFT.ExamInfo",
          "name": "",
          "type": "tuple"
        }
      ],
      "stateMutability": "view",
      "type": "function"
    },
    {
      "inputs": [
        {
          "internalType": "address",
          "name": "_walletAddress",
          "type": "address"
        }
      ],
      "name": "getTokenIdByWallet",
      "outputs": [
        {
          "internalType": "uint256",
          "name": "",
          "type": "uint256"
        }
      ],
      "stateMutability": "view",
      "type": "function"
    },
    {
      "inputs": [],
      "name": "getTotalCertificates",
      "outputs": [
        {
          "internalType": "uint256",
          "name": "",
          "type": "uint256"
        }
      ],
      "stateMutability": "view",
      "type": "function"
    },
    {
      "inputs": [
        {
          "internalType": "address",
          "name": "owner",
          "type": "address"
        },
        {
          "internalType": "address",
          "name": "operator",
          "type": "address"
        }
      ],
      "name": "isApprovedForAll",
      "outputs": [
        {
          "internalType": "bool",
          "name": "",
          "type": "bool"
        }
      ],
      "stateMutability": "view",
      "type": "function"
    },
    {
      "inputs": [
        {
          "internalType": "uint256",
          "name": "_tokenId",
          "type": "uint256"
        }
      ],
      "name": "isCertificateValid",
      "outputs": [
        {
          "internalType": "bool",
          "name": "",
          "type": "bool"
        }
      ],
      "stateMutability": "view",
      "type": "function"
    },
    {
      "inputs": [
        {
          "internalType": "address",
          "name": "_studentWallet",
          "type": "address"
        },
        {
          "internalType": "string",
          "name": "_studentId",
          "type": "string"
        },
        {
          "internalType": "string",
          "name": "_subject",
          "type": "string"
        },
        {
          "internalType": "string",
          "name": "_examSession",
          "type": "string"
        },
        {
          "internalType": "string",
          "name": "_ipAddress",
          "type": "string"
        },
        {
          "internalType": "uint256",
          "name": "_score",
          "type": "uint256"
        },
        {
          "internalType": "string",
          "name": "_tokenURI",
          "type": "string"
        }
      ],
      "name": "mintCertificate",
      "outputs": [
        {
          "internalType": "uint256",
          "name": "",
          "type": "uint256"
        }
      ],
      "stateMutability": "nonpayable",
      "type": "function"
    },
    {
      "inputs": [],
      "name": "name",
      "outputs": [
        {
          "internalType": "string",
          "name": "",
          "type": "string"
        }
      ],
      "stateMutability": "view",
      "type": "function"
    },
    {
      "inputs": [],
      "name": "owner",
      "outputs": [
        {
          "internalType": "address",
          "name": "",
          "type": "address"
        }
      ],
      "stateMutability": "view",
      "type": "function"
    },
    {
      "inputs": [
        {
          "internalType": "uint256",
          "name": "tokenId",
          "type": "uint256"
        }
      ],
      "name": "ownerOf",
      "outputs": [
        {
          "internalType": "address",
          "name": "",
          "type": "address"
        }
      ],
      "stateMutability": "view",
      "type": "function"
    },
    {
      "inputs": [],
      "name": "renounceOwnership",
      "outputs": [],
      "stateMutability": "nonpayable",
      "type": "function"
    },
    {
      "inputs": [
        {
          "internalType": "uint256",
          "name": "_tokenId",
          "type": "uint256"
        },
        {
          "internalType": "string",
          "name": "_reason",
          "type": "string"
        }
      ],
      "name": "revokeCertificate",
      "outputs": [],
      "stateMutability": "nonpayable",
      "type": "function"
    },
    {
      "inputs": [
        {
          "internalType": "address",
          "name": "from",
          "type": "address"
        },
        {
          "internalType": "address",
          "name": "to",
          "type": "address"
        },
        {
          "internalType": "uint256",
          "name": "tokenId",
          "type": "uint256"
        }
      ],
      "name": "safeTransferFrom",
      "outputs": [],
      "stateMutability": "nonpayable",
      "type": "function"
    },
    {
      "inputs": [
        {
          "internalType": "address",
          "name": "from",
          "type": "address"
        },
        {
          "internalType": "address",
          "name": "to",
          "type": "address"
        },
        {
          "internalType": "uint256",
          "name": "tokenId",
          "type": "uint256"
        },
        {
          "internalType": "bytes",
          "name": "data",
          "type": "bytes"
        }
      ],
      "name": "safeTransferFrom",
      "outputs": [],
      "stateMutability": "nonpayable",
      "type": "function"
    },
    {
      "inputs": [
        {
          "internalType": "address",
          "name": "operator",
          "type": "address"
        },
        {
          "internalType": "bool",
          "name": "approved",
          "type": "bool"
        }
      ],
      "name": "setApprovalForAll",
      "outputs": [],
      "stateMutability": "nonpayable",
      "type": "function"
    },
    {
      "inputs": [
        {
          "internalType": "bytes4",
          "name": "interfaceId",
          "type": "bytes4"
        }
      ],
      "name": "supportsInterface",
      "outputs": [
        {
          "internalType": "bool",
          "name": "",
          "type": "bool"
        }
      ],
      "stateMutability": "view",
      "type": "function"
    },
    {
      "inputs": [],
      "name": "symbol",
      "outputs": [
        {
          "internalType": "string",
          "name": "",
          "type": "string"
        }
      ],
      "stateMutability": "view",
      "type": "function"
    },
    {
      "inputs": [
        {
          "internalType": "uint256",
          "name": "tokenId",
          "type": "uint256"
        }
      ],
      "name": "tokenURI",
      "outputs": [
        {
          "internalType": "string",
          "name": "",
          "type": "string"
        }
      ],
      "stateMutability": "view",
      "type": "function"
    },
    {
      "inputs": [
        {
          "internalType": "address",
          "name": "from",
          "type": "address"
        },
        {
          "internalType": "address",
          "name": "to",
          "type": "address"
        },
        {
          "internalType": "uint256",
          "name": "tokenId",
          "type": "uint256"
        }
      ],
      "name": "transferFrom",
      "outputs": [],
      "stateMutability": "nonpayable",
      "type": "function"
    },
    {
      "inputs": [
        {
          "internalType": "address",
          "name": "newOwner",
          "type": "address"
        }
      ],
      "name": "transferOwnership",
      "outputs": [],
      "stateMutability": "nonpayable",
      "type": "function"
    },
    {
      "inputs": [
        {
          "internalType": "address",
          "name": "",
          "type": "address"
        }
      ],
      "name": "walletToTokenId",
      "outputs": [
        {
          "internalType": "uint256",
          "name": "",
          "type": "uint256"
        }
      ],
      "stateMutability": "view",
      "type": "function"
    }
  ],
  "bytecode": "0x6080346200036f576001600160401b039060408181018381118382101762000359578152601482526020917f4578616d204365727469666963617465204e465400000000000000000000000083820152815193828501858110828211176200035957835260088552671156105350d1549560c21b84860152815181811162000359576000948554916001948584811c941680156200034e575b838510146200033a578190601f94858111620002e7575b5083908583116001146200028357899262000277575b5050600019600383901b1c191690851b1786555b8651928311620002635783548481811c9116801562000258575b828210146200024457828111620001fc575b50809183116001146200019557508495829394959262000189575b5050600019600383901b1c191690821b1790555b60078054336001600160a01b03198216811790925591519290916001600160a01b0316907f8be0079c531659141344cd1fd0a4f28419497f9722a3daafe3b4186f6b6457e09080a3611fbd9081620003758239f35b01519050388062000120565b90601f198316968487528287209287905b898210620001e4575050838596979810620001ca575b505050811b01905562000134565b015160001960f88460031b161c19169055388080620001bc565b808785968294968601518155019501930190620001a6565b8487528187208380860160051c8201928487106200023a575b0160051c019085905b8281106200022e57505062000105565b8881550185906200021e565b9250819262000215565b634e487b7160e01b87526022600452602487fd5b90607f1690620000f3565b634e487b7160e01b86526041600452602486fd5b015190503880620000c5565b898052848a208894509190601f1984168b5b87828210620002d05750508411620002b6575b505050811b018655620000d9565b015160001960f88460031b161c19169055388080620002a8565b8385015186558b9790950194938401930162000295565b9091508880528389208580850160051c82019286861062000330575b918991869594930160051c01915b82811062000321575050620000af565b8b815585945089910162000311565b9250819262000303565b634e487b7160e01b88526022600452602488fd5b93607f169362000098565b634e487b7160e01b600052604160045260246000fd5b600080fdfe608080604052600436101561001357600080fd5b60003560e01c90816301ffc9a7146117295750806306fdde0314611686578063081812fc1461166857806308e412cb146114df578063095ea7b3146113655780631d2cbedc14610fc157806323b872dd1461133c57806342842e0e146113145780634974068c146112455780636352211e1461121557806370a082311461117e578063715018a6146111215780637843bb79146111035780638da5cb5b146110da57806395d89b4114610ffb5780639c2806c714610fc1578063a22cb46514610ee6578063a5ce413a14610e8f578063b1466d1d14610d55578063b2c2876a14610322578063b88d4fde146102c1578063c87b56dd1461024b578063e985e9c5146101f55763f2fde38b1461012757600080fd5b346101f05760203660031901126101f0576101406117ee565b6101486119f7565b6001600160a01b0390811690811561019c57600754826bffffffffffffffffffffffff60a01b821617600755167f8be0079c531659141344cd1fd0a4f28419497f9722a3daafe3b4186f6b6457e0600080a3005b60405162461bcd60e51b815260206004820152602660248201527f4f776e61626c653a206e6577206f776e657220697320746865207a65726f206160448201526564647265737360d01b6064820152608490fd5b600080fd5b346101f05760403660031901126101f05761020e6117ee565b610216611804565b9060018060a01b03809116600052600560205260406000209116600052602052602060ff604060002054166040519015158152f35b346101f05760203660031901126101f057600435600081815260026020526040902054610282906001600160a01b03161515611a4f565b60005260066020526102bd61029a60406000206118e1565b60006040516102a8816118a5565b526040519182916020835260208301906117ae565b0390f35b346101f05760803660031901126101f0576102da6117ee565b6102e2611804565b606435916001600160401b0383116101f057366023840112156101f0576103166103209336906024816004013591016119a2565b9160443591611b5e565b005b346101f05760e03660031901126101f05761033b6117ee565b6024356001600160401b0381116101f05761035a9036906004016119d9565b906044356001600160401b0381116101f05761037a9036906004016119d9565b906064356001600160401b0381116101f05761039a9036906004016119d9565b916084356001600160401b0381116101f0576103ba9036906004016119d9565b9260c4356001600160401b0381116101f0576103da9036906004016119d9565b936103e36119f7565b6001600160a01b03841615610d1757855115610cd2576001600160a01b038416600090815260096020526040902054610c8d57600160085401948560085561044961044387600052600260205260018060a01b0360406000205416151590565b15611ef8565b60008681526002602052604090205461046c906001600160a01b03161515610443565b6001600160a01b0385166000818152600360209081526040808320805460010190558983526002909152812080546001600160a01b031916831790558791907fddf252ad1be2c89b69c2b068fc378daa952ba7f163c4a11628f55a4df523b3ef8180a46000868152600260205260409020546001600160a01b031615610c31578560005260066020526040600020908051906001600160401b0382116108ed578190610518845461184f565b601f8111610be1575b50602090601f8311600114610b7557600092610b6a575b50508160011b916000199060031b1c19161790555b7ff8e1a15aba9398e019f0b49df1a4fde98ee17ae345cb5f6b5e2c27f5033e8ce76020604051878152a160018060a01b0384166000526009602052846040600020556040519161059c83611889565b868352836020840152604083015242606083015242608083015260a0820152600160c082015260a43560e082015283600052600a60205260406000209080518051906001600160401b0382116108ed5781906105f8855461184f565b601f8111610b1a575b50602090601f8311600114610aae57600092610aa3575b50508160011b916000199060031b1c19161782555b60208101518051906001600160401b0382116108ed578190610652600186015461184f565b601f8111610a50575b50602090601f83116001146109de576000926109d3575b50508160011b916000199060031b1c19161760018301555b60408101518051906001600160401b0382116108ed5781906106af600286015461184f565b601f8111610980575b50602090601f831160011461090e57600092610903575b50508160011b916000199060031b1c19161760028301555b606081015160038301556080810151600483015560a08101518051906001600160401b0382116108ed5761071e600585015461184f565b601f81116108a6575b509160209793918795938990601f83116001146108065760e06107d694846107c998957ff63fd96e0602d6f84e816afd7eb668e0079060a2520980c4d958038a7f177fc19a98956007956000926107fb575b50508160011b916000199060031b1c19161760058501555b6107b060c08201511515600686019060ff801983541691151516179055565b01519101556040519384936080855260808501906117ae565b908382038a8501526117ae565b42604083015260a43560608301526001600160a01b03909516940390a3604051908152f35b015190508f80610779565b90600585016000528a6000209160005b601f198516811061088c57506107d6946001857ff63fd96e0602d6f84e816afd7eb668e0079060a2520980c4d958038a7f177fc19a989560079560e0956107c99c99601f19811610610873575b505050811b016005850155610791565b015160001960f88460031b161c191690558f8080610863565b8183015184558b9950600190930192918c01918c01610816565b600585016000526020600020601f840160051c8101602085106108e6575b601f830160051c820181106108da575050610727565b600081556001016108c4565b50806108c4565b634e487b7160e01b600052604160045260246000fd5b0151905088806106cf565b9250600285016000526020600020906000935b601f1984168510610965576001945083601f1981161061094c575b505050811b0160028301556106e7565b015160001960f88460031b161c1916905588808061093c565b81810151835560209485019460019093019290910190610921565b909150600285016000526020600020601f840160051c8101602085106109cc575b90849392915b601f830160051c820181106109bd5750506106b8565b600081558594506001016109a7565b50806109a1565b015190508880610672565b9250600185016000526020600020906000935b601f1984168510610a35576001945083601f19811610610a1c575b505050811b01600183015561068a565b015160001960f88460031b161c19169055888080610a0c565b818101518355602094850194600190930192909101906109f1565b909150600185016000526020600020601f840160051c810160208510610a9c575b90849392915b601f830160051c82018110610a8d57505061065b565b60008155859450600101610a77565b5080610a71565b015190508880610618565b9250846000526020600020906000935b601f1984168510610aff576001945083601f19811610610ae6575b505050811b01825561062d565b015160001960f88460031b161c19169055888080610ad9565b81810151835560209485019460019093019290910190610abe565b909150846000526020600020601f840160051c810160208510610b63575b90849392915b601f830160051c82018110610b54575050610601565b60008155859450600101610b3e565b5080610b38565b015190508980610538565b9250836000526020600020906000935b601f1984168510610bc6576001945083601f19811610610bad575b505050811b01905561054d565b015160001960f88460031b161c19169055898080610ba0565b81810151835560209485019460019093019290910190610b85565b909150836000526020600020601f840160051c810160208510610c2a575b90849392915b601f830160051c82018110610c1b575050610521565b60008155859450600101610c05565b5080610bff565b60405162461bcd60e51b815260206004820152602e60248201527f45524337323155524953746f726167653a2055524920736574206f66206e6f6e60448201526d32bc34b9ba32b73a103a37b5b2b760911b6064820152608490fd5b60405162461bcd60e51b815260206004820152601a60248201527f436572746966696361746520616c7265616479206578697374730000000000006044820152606490fd5b60405162461bcd60e51b815260206004820152601a60248201527f53747564656e742049442063616e6e6f7420626520656d7074790000000000006044820152606490fd5b60405162461bcd60e51b8152602060048201526016602482015275496e76616c69642077616c6c6574206164647265737360501b6044820152606490fd5b346101f05760403660031901126101f0576004356024356001600160401b0381116101f057610d889036906004016119d9565b90610d916119f7565b600081815260026020526040902054610db9906001600160a01b03161515611f44565b611f44565b80600052602091600a835260ff6006604060002001541615610e4a576000828152600a845260409020600601805460ff191690557fe30209e229ea01f995092aa4cd5d70b4cd972c12645ab69fa4884bd9882f778f906001600160a01b03610e2084611a9b565b1693846000526009815260006040812055610e456040519282849384528301906117ae565b0390a3005b60405162461bcd60e51b815260048101849052601b60248201527f436572746966696361746520616c7265616479207265766f6b656400000000006044820152606490fd5b346101f05760203660031901126101f057600435600081815260026020526040902054610ec6906001600160a01b03161515611f44565b600052600a602052602060ff600660406000200154166040519015158152f35b346101f05760403660031901126101f057610eff6117ee565b60243590811515908183036101f0576001600160a01b031691338314610f7c57610f4e9033600052600560205260406000208460005260205260406000209060ff801983541691151516179055565b6040519081527f17307eab39ab6107e8899845ad3d59bd9653f200f220920489ca2b5937696c3160203392a3005b60405162461bcd60e51b815260206004820152601960248201527f4552433732313a20617070726f766520746f2063616c6c6572000000000000006044820152606490fd5b346101f05760203660031901126101f0576001600160a01b03610fe26117ee565b1660005260096020526020604060002054604051908152f35b346101f05760003660031901126101f0576040516000600180549061101f8261184f565b808552918181169081156110b3575060011461105a575b6102bd84611046818603826118c0565b6040519182916020835260208301906117ae565b600081815292507fb10e2d527612073b26eecdfd717e6a320cf44b4afac2b0732d9fcbe2b7fa0cf65b82841061109b57505050810160200161104682611036565b80546020858701810191909152909301928101611083565b60ff191660208087019190915292151560051b850190920192506110469150839050611036565b346101f05760003660031901126101f0576007546040516001600160a01b039091168152602090f35b346101f05760003660031901126101f0576020600854604051908152f35b346101f05760003660031901126101f05761113a6119f7565b600780546001600160a01b031981169091556000906001600160a01b03167f8be0079c531659141344cd1fd0a4f28419497f9722a3daafe3b4186f6b6457e08280a3005b346101f05760203660031901126101f0576001600160a01b0361119f6117ee565b1680156111be5760005260036020526020604060002054604051908152f35b60405162461bcd60e51b815260206004820152602960248201527f4552433732313a2061646472657373207a65726f206973206e6f7420612076616044820152683634b21037bbb732b960b91b6064820152608490fd5b346101f05760203660031901126101f0576020611233600435611a9b565b6040516001600160a01b039091168152f35b346101f05760203660031901126101f057600435600052600a6020526112cf6040600020611272816118e1565b9061127f600182016118e1565b61130361128e600284016118e1565b60038401549060048501546112eb6112a8600588016118e1565b926112dd600760ff60068b015416990154976040519b8c9b8c6101008091528d01906117ae565b908b820360208d01526117ae565b9089820360408b01526117ae565b926060880152608087015285820360a08701526117ae565b91151560c084015260e08301520390f35b346101f0576103206113253661181a565b9060405192611333846118a5565b60008452611b5e565b346101f05761032061134d3661181a565b9161136061135b8433611bf9565b611afc565b611cc1565b346101f05760403660031901126101f05761137e6117ee565b602435906001600160a01b03808061139585611a9b565b169216918083146114905780331490811561146b575b501561140057600083815260046020526040902080546001600160a01b031916831790556113d883611a9b565b167f8c5be1e5ebec7d5bd14f71427d1e84f3dd0314c0f7b2291e5b200ac8c7c3b925600080a4005b60405162461bcd60e51b815260206004820152603d60248201527f4552433732313a20617070726f76652063616c6c6572206973206e6f7420746f60448201527f6b656e206f776e6572206f7220617070726f76656420666f7220616c6c0000006064820152608490fd5b9050600052600560205260406000203360005260205260ff60406000205416846113ab565b60405162461bcd60e51b815260206004820152602160248201527f4552433732313a20617070726f76616c20746f2063757272656e74206f776e656044820152603960f91b6064820152608490fd5b346101f0576020806003193601126101f057611613600435916040519261150584611889565b600060e0606095868152868582015286604082015282878201528260808201528660a08201528260c08201520152611555610db482600052600260205260018060a01b0360406000205416151590565b600052600a81526040600020906040519361156f85611889565b611578836118e1565b8552611656611589600185016118e1565b9583810196875261159c600286016118e1565b90604081019182526003860154918482019283526004870154608083019081526116396115cb60058a016118e1565b9260a08501938452600760ff60068c0154169a60c087019b15158c5201549760e086019889526116286040519d8e9d8e988d8a5251610100809e8b01526101208a01906117ae565b9051601f199860408a828503019101526117ae565b915190868d840301908d01526117ae565b935160808a01525160a089015251908783030160c08801526117ae565b9251151560e085015251908301520390f35b346101f05760203660031901126101f0576020611233600435611abe565b346101f05760003660031901126101f057604051600080546116a78161184f565b808452906001908181169081156110b357506001146116d0576102bd84611046818603826118c0565b600080805292507f290decd9548b62a8d60345a988386fc84ba6bc95484008f6362f93160ef3e5635b82841061171157505050810160200161104682611036565b805460208587018101919091529093019281016116f9565b346101f05760203660031901126101f0576004359063ffffffff60e01b82168092036101f057602091632483248360e11b811490811561176b575b5015158152f35b6380ac58cd60e01b81149150811561179d575b811561178c575b5083611764565b6301ffc9a760e01b14905083611785565b635b5e139f60e01b8114915061177e565b919082519283825260005b8481106117da575050826000602080949584010152601f8019910116010190565b6020818301810151848301820152016117b9565b600435906001600160a01b03821682036101f057565b602435906001600160a01b03821682036101f057565b60609060031901126101f0576001600160a01b039060043582811681036101f0579160243590811681036101f0579060443590565b90600182811c9216801561187f575b602083101461186957565b634e487b7160e01b600052602260045260246000fd5b91607f169161185e565b61010081019081106001600160401b038211176108ed57604052565b602081019081106001600160401b038211176108ed57604052565b90601f801991011681019081106001600160401b038211176108ed57604052565b90604051918260008254926118f58461184f565b9081845260019485811690816000146119645750600114611921575b505061191f925003836118c0565b565b9093915060005260209081600020936000915b81831061194c57505061191f93508201013880611911565b85548884018501529485019487945091830191611934565b91505061191f94506020925060ff191682840152151560051b8201013880611911565b6001600160401b0381116108ed57601f01601f191660200190565b9291926119ae82611987565b916119bc60405193846118c0565b8294818452818301116101f0578281602093846000960137010152565b9080601f830112156101f0578160206119f4933591016119a2565b90565b6007546001600160a01b03163303611a0b57565b606460405162461bcd60e51b815260206004820152602060248201527f4f776e61626c653a2063616c6c6572206973206e6f7420746865206f776e65726044820152fd5b15611a5657565b60405162461bcd60e51b815260206004820152601860248201527f4552433732313a20696e76616c696420746f6b656e20494400000000000000006044820152606490fd5b6000908152600260205260409020546001600160a01b03166119f4811515611a4f565b600081815260026020526040902054611ae1906001600160a01b03161515611a4f565b6000908152600460205260409020546001600160a01b031690565b15611b0357565b60405162461bcd60e51b815260206004820152602d60248201527f4552433732313a2063616c6c6572206973206e6f7420746f6b656e206f776e6560448201526c1c881bdc88185c1c1c9bdd9959609a1b6064820152608490fd5b90611b82939291611b7261135b8433611bf9565b611b7d838383611cc1565b611dd7565b15611b8957565b60405162461bcd60e51b815280611ba260048201611ba6565b0390fd5b60809060208152603260208201527f4552433732313a207472616e7366657220746f206e6f6e20455243373231526560408201527131b2b4bb32b91034b6b83632b6b2b73a32b960711b60608201520190565b906001600160a01b038080611c0d84611a9b565b16931691838314938415611c40575b508315611c2a575b50505090565b611c3691929350611abe565b1614388080611c24565b909350600052600560205260406000208260005260205260ff604060002054169238611c1c565b15611c6e57565b60405162461bcd60e51b815260206004820152602560248201527f4552433732313a207472616e736665722066726f6d20696e636f72726563742060448201526437bbb732b960d91b6064820152608490fd5b90611ce991611ccf84611a9b565b6001600160a01b0393918416928492909183168414611c67565b16918215611d865781611d0691611cff86611a9b565b1614611c67565b7fddf252ad1be2c89b69c2b068fc378daa952ba7f163c4a11628f55a4df523b3ef60008481526004602052604081206bffffffffffffffffffffffff60a01b9081815416905583825260036020526040822060001981540190558482526040822060018154019055858252600260205284604083209182541617905580a4565b60405162461bcd60e51b8152602060048201526024808201527f4552433732313a207472616e7366657220746f20746865207a65726f206164646044820152637265737360e01b6064820152608490fd5b92939190803b15611eee57611e29946040518092630a85bd0160e11b9485835233600484015260018060a01b03809816602484015260448301526080606483015281806020998a9560848301906117ae565b03916000988991165af1849181611eaa575b50611e99575050503d600014611e91573d611e5581611987565b90611e6360405192836118c0565b81528091833d92013e5b80519182611e8e5760405162461bcd60e51b815280611ba260048201611ba6565b01fd5b506060611e6d565b6001600160e01b0319161492509050565b9091508581813d8311611ee7575b611ec281836118c0565b81010312611ee357516001600160e01b031981168103611ee3579038611e3b565b8480fd5b503d611eb8565b5050915050600190565b15611eff57565b60405162461bcd60e51b815260206004820152601c60248201527f4552433732313a20746f6b656e20616c7265616479206d696e746564000000006044820152606490fd5b15611f4b57565b60405162461bcd60e51b8152602060048201526014602482015273151bdad95b88191bd95cc81b9bdd08195e1a5cdd60621b6044820152606490fdfea26469706673582212209c6b62b1fc0f34d4f36385b0e7b7defc2adff9bd011737ce8ed8da2bd1d7201b64736f6c63430008140033",
  "linkReferences": {},
  "deployedLinkReferences": {}
}