{
  "_format": "hh-sol-artifact-1",
  "contractName": "StudentIDNFT",
  "sourceName": "contracts/StudentIDNFT.sol",
  "abi": [
    {
      "inputs": [],
      "stateMutability": "nonpayable",
      "type": "constructor"
    },
    {
      "anonymous": false,
      "inputs": [
        {
          "indexed": true,
          "internalType": "address",
          "name": "owner",
          "type": "address"
        },
        {
          "indexed": true,
          "internalType": "address",
          "name": "approved",
          "type": "address"
        },
        {
          "indexed": true,
          "internalType": "uint256",
          "name": "tokenId",
          "type": "uint256"
        }
      ],
      "name": "Approval",
      "type": "event"
    },
    {
      "anonymous": false,
      "inputs": [
        {
          "indexed": true,
          "internalType": "address",
          "name": "owner",
          "type": "address"
        },
        {
          "indexed": true,
          "internalType": "address",
          "name": "operator",
          "type": "address"
        },
        {
          "indexed": false,
          "internalType": "bool",
          "name": "approved",
          "type": "bool"
        }
      ],
      "name": "ApprovalForAll",
      "type": "event"
    },
    {
      "anonymous": false,
      "inputs": [
        {
          "indexed": false,
          "internalType": "uint256",
          "name": "_fromTokenId",
          "type": "uint256"
        },
        {
          "indexed": false,
          "internalType": "uint256",
          "name": "_toTokenId",
          "type": "uint256"
        }
      ],
      "name": "BatchMetadataUpdate",
      "type": "event"
    },
    {
      "anonymous": false,
      "inputs": [
        {
          "indexed": false,
          "internalType": "uint256",
          "name": "_tokenId",
          "type": "uint256"
        }
      ],
      "name": "MetadataUpdate",
      "type": "event"
    },
    {
      "anonymous": false,
      "inputs": [
        {
          "indexed": true,
          "internalType": "address",
          "name": "previousOwner",
          "type": "address"
        },
        {
          "indexed": true,
          "internalType": "address",
          "name": "newOwner",
          "type": "address"
        }
      ],
      "name": "OwnershipTransferred",
      "type": "event"
    },
    {
      "anonymous": false,
      "inputs": [
        {
          "indexed": true,
          "internalType": "uint256",
          "name": "tokenId",
          "type": "uint256"
        },
        {
          "indexed": true,
          "internalType": "address",
          "name": "studentWallet",
          "type": "address"
        },
        {
          "indexed": false,
          "internalType": "string",
          "name": "studentId",
          "type": "string"
        }
      ],
      "name": "StudentIDMinted",
      "type": "event"
    },
    {
      "anonymous": false,
      "inputs": [
        {
          "indexed": true,
          "internalType": "address",
          "name": "from",
          "type": "address"
        },
        {
          "indexed": true,
          "internalType": "address",
          "name": "to",
          "type": "address"
        },
        {
          "indexed": true,
          "internalType": "uint256",
          "name": "tokenId",
          "type": "uint256"
        }
      ],
      "name": "Transfer",
      "type": "event"
    },
    {
      "inputs": [
        {
          "internalType": "address",
          "name": "to",
          "type": "address"
        },
        {
          "internalType": "uint256",
          "name": "tokenId",
          "type": "uint256"
        }
      ],
      "name": "approve",
      "outputs": [],
      "stateMutability": "nonpayable",
      "type": "function"
    },
    {
      "inputs": [
        {
          "internalType": "address",
          "name": "owner",
          "type": "address"
        }
      ],
      "name": "balanceOf",
      "outputs": [
        {
          "internalType": "uint256",
          "name": "",
          "type": "uint256"
        }
      ],
      "stateMutability": "view",
      "type": "function"
    },
    {
      "inputs": [
        {
          "internalType": "uint256",
          "name": "tokenId",
          "type": "uint256"
        }
      ],
      "name": "getApproved",
      "outputs": [
        {
          "internalType": "address",
          "name": "",
          "type": "address"
        }
      ],
      "stateMutability": "view",
      "type": "function"
    },
    {
      "inputs": [
        {
          "internalType": "address",
          "name": "_walletAddress",
          "type": "address"
        }
      ],
      "name": "getTokenIdByWallet",
      "outputs": [
        {
          "internalType": "uint256",
          "name": "",
          "type": "uint256"
        }
      ],
      "stateMutability": "view",
      "type": "function"
    },
    {
      "inputs": [
        {
          "internalType": "address",
          "name": "owner",
          "type": "address"
        },
        {
          "internalType": "address",
          "name": "operator",
          "type": "address"
        }
      ],
      "name": "isApprovedForAll",
      "outputs": [
        {
          "internalType": "bool",
          "name": "",
          "type": "bool"
        }
      ],
      "stateMutability": "view",
      "type": "function"
    },
    {
      "inputs": [
        {
          "internalType": "address",
          "name": "_studentWallet",
          "type": "address"
        },
        {
          "internalType": "string",
          "name": "_studentId",
          "type": "string"
        },
        {
          "internalType": "string",
          "name": "_tokenURI",
          "type": "string"
        }
      ],
      "name": "mintStudentID",
      "outputs": [
        {
          "internalType": "uint256",
          "name": "",
          "type": "uint256"
        }
      ],
      "stateMutability": "nonpayable",
      "type": "function"
    },
    {
      "inputs": [],
      "name": "name",
      "outputs": [
        {
          "internalType": "string",
          "name": "",
          "type": "string"
        }
      ],
      "stateMutability": "view",
      "type": "function"
    },
    {
      "inputs": [],
      "name": "owner",
      "outputs": [
        {
          "internalType": "address",
          "name": "",
          "type": "address"
        }
      ],
      "stateMutability": "view",
      "type": "function"
    },
    {
      "inputs": [
        {
          "internalType": "uint256",
          "name": "tokenId",
          "type": "uint256"
        }
      ],
      "name": "ownerOf",
      "outputs": [
        {
          "internalType": "address",
          "name": "",
          "type": "address"
        }
      ],
      "stateMutability": "view",
      "type": "function"
    },
    {
      "inputs": [],
      "name": "renounceOwnership",
      "outputs": [],
      "stateMutability": "nonpayable",
      "type": "function"
    },
    {
      "inputs": [
        {
          "internalType": "address",
          "name": "from",
          "type": "address"
        },
        {
          "internalType": "address",
          "name": "to",
          "type": "address"
        },
        {
          "internalType": "uint256",
          "name": "tokenId",
          "type": "uint256"
        }
      ],
      "name": "safeTransferFrom",
      "outputs": [],
      "stateMutability": "nonpayable",
      "type": "function"
    },
    {
      "inputs": [
        {
          "internalType": "address",
          "name": "from",
          "type": "address"
        },
        {
          "internalType": "address",
          "name": "to",
          "type": "address"
        },
        {
          "internalType": "uint256",
          "name": "tokenId",
          "type": "uint256"
        },
        {
          "internalType": "bytes",
          "name": "data",
          "type": "bytes"
        }
      ],
      "name": "safeTransferFrom",
      "outputs": [],
      "stateMutability": "nonpayable",
      "type": "function"
    },
    {
      "inputs": [
        {
          "internalType": "address",
          "name": "operator",
          "type": "address"
        },
        {
          "internalType": "bool",
          "name": "approved",
          "type": "bool"
        }
      ],
      "name": "setApprovalForAll",
      "outputs": [],
      "stateMutability": "nonpayable",
      "type": "function"
    },
    {
      "inputs": [
        {
          "internalType": "bytes4",
          "name": "interfaceId",
          "type": "bytes4"
        }
      ],
      "name": "supportsInterface",
      "outputs": [
        {
          "internalType": "bool",
          "name": "",
          "type": "bool"
        }
      ],
      "stateMutability": "view",
      "type": "function"
    },
    {
      "inputs": [],
      "name": "symbol",
      "outputs": [
        {
          "internalType": "string",
          "name": "",
          "type": "string"
        }
      ],
      "stateMutability": "view",
      "type": "function"
    },
    {
      "inputs": [
        {
          "internalType": "uint256",
          "name": "tokenId",
          "type": "uint256"
        }
      ],
      "name": "tokenURI",
      "outputs": [
        {
          "internalType": "string",
          "name": "",
          "type": "string"
        }
      ],
      "stateMutability": "view",
      "type": "function"
    },
    {
      "inputs": [
        {
          "internalType": "address",
          "name": "from",
          "type": "address"
        },
        {
          "internalType": "address",
          "name": "to",
          "type": "address"
        },
        {
          "internalType": "uint256",
          "name": "tokenId",
          "type": "uint256"
        }
      ],
      "name": "transferFrom",
      "outputs": [],
      "stateMutability": "nonpayable",
      "type": "function"
    },
    {
      "inputs": [
        {
          "internalType": "address",
          "name": "newOwner",
          "type": "address"
        }
      ],
      "name": "transferOwnership",
      "outputs": [],
      "stateMutability": "nonpayable",
      "type": "function"
    },
    {
      "inputs": [
        {
          "internalType": "address",
          "name": "",
          "type": "address"
        }
      ],
      "name": "walletToTokenId",
      "outputs": [
        {
          "internalType": "uint256",
          "name": "",
          "type": "uint256"
        }
      ],
      "stateMutability": "view",
      "type": "function"
    }
  ],
  "bytecode": "0x60803462000361576001600160401b03906040818101838111838210176200034b578152600e82526020916d14dd1d59195b9d0812510813919560921b83820152815193828501858110828211176200034b578352600985526814d51551115395125160ba1b8486015281518181116200034b576000948554916001948584811c9416801562000340575b838510146200032c578190601f94858111620002d9575b5083908583116001146200027557899262000269575b5050600019600383901b1c191690851b1786555b8651928311620002555783548481811c911680156200024a575b828210146200023657828111620001ee575b5080918311600114620001875750849582939495926200017b575b5050600019600383901b1c191690821b1790555b60078054336001600160a01b03198216811790925591519290916001600160a01b0316907f8be0079c531659141344cd1fd0a4f28419497f9722a3daafe3b4186f6b6457e09080a36115359081620003678239f35b01519050388062000112565b90601f198316968487528287209287905b898210620001d6575050838596979810620001bc575b505050811b01905562000126565b015160001960f88460031b161c19169055388080620001ae565b80878596829496860151815501950193019062000198565b8487528187208380860160051c8201928487106200022c575b0160051c019085905b82811062000220575050620000f7565b88815501859062000210565b9250819262000207565b634e487b7160e01b87526022600452602487fd5b90607f1690620000e5565b634e487b7160e01b86526041600452602486fd5b015190503880620000b7565b898052848a208894509190601f1984168b5b87828210620002c25750508411620002a8575b505050811b018655620000cb565b015160001960f88460031b161c191690553880806200029a565b8385015186558b9790950194938401930162000287565b9091508880528389208580850160051c82019286861062000322575b918991869594930160051c01915b82811062000313575050620000a1565b8b815585945089910162000303565b92508192620002f5565b634e487b7160e01b88526022600452602488fd5b93607f16936200008a565b634e487b7160e01b600052604160045260246000fd5b600080fdfe6080604081815260048036101561001557600080fd5b600092833560e01c90816301ffc9a714610d8b5750806306fdde0314610ce3578063081812fc14610cc3578063095ea7b314610b565780631d2cbedc1461045557806323b872dd14610b2c578063345975b7146106e957806342842e0e146106c05780636352211e1461068f57806370a08231146105f9578063715018a6146105995780638da5cb5b1461057057806395d89b411461048d5780639c2806c714610455578063a22cb4651461038a578063b88d4fde14610322578063c87b56dd14610214578063e985e9c5146101c25763f2fde38b146100f457600080fd5b346101be5760203660031901126101be5761010d610e51565b90610116610f7c565b6001600160a01b0391821692831561016c575050600754826bffffffffffffffffffffffff60a01b821617600755167f8be0079c531659141344cd1fd0a4f28419497f9722a3daafe3b4186f6b6457e08380a380f35b906020608492519162461bcd60e51b8352820152602660248201527f4f776e61626c653a206e6577206f776e657220697320746865207a65726f206160448201526564647265737360d01b6064820152fd5b8280fd5b50503461021057806003193601126102105760ff816020936101e2610e51565b6101ea610e6c565b6001600160a01b0391821683526005875283832091168252855220549151911615158152f35b5080fd5b5090346101be576020918260031936011261031e573560008181526002602052604090205461024d906001600160a01b03161515610fd4565b83526006825280832092815180948290805461026881611043565b918285526001918883821691826000146102f75750506001146102b9575b5050506102b593929161029a910386610ee9565b81516102a581610eb7565b5251928284938452830190610e11565b0390f35b8552868520879350859291905b8284106102df575050508201018161029a6102b5610286565b8054848b0186015289955088949093019281016102c6565b60ff19168782015293151560051b8601909301935084925061029a91506102b59050610286565b8380fd5b8382346102105760803660031901126102105761033d610e51565b610345610e6c565b9060643567ffffffffffffffff81116103865736602382011215610386576103839381602461037993369301359101610f27565b916044359161111d565b80f35b8480fd5b5090346101be57806003193601126101be576103a4610e51565b9060243591821515809303610386576001600160a01b0316923384146104135750338452600560205280842083855260205280842060ff1981541660ff8416179055519081527f17307eab39ab6107e8899845ad3d59bd9653f200f220920489ca2b5937696c3160203392a380f35b6020606492519162461bcd60e51b8352820152601960248201527f4552433732313a20617070726f766520746f2063616c6c6572000000000000006044820152fd5b5050346102105760203660031901126102105760209181906001600160a01b0361047d610e51565b1681526009845220549051908152f35b5050346102105781600319360112610210578051908260018054916104b183611043565b8086529282811690811561054857506001146104ec575b5050506104da826102b5940383610ee9565b51918291602083526020830190610e11565b94508085527fb10e2d527612073b26eecdfd717e6a320cf44b4afac2b0732d9fcbe2b7fa0cf65b828610610530575050506104da8260206102b595820101946104c8565b80546020878701810191909152909501948101610513565b6102b59750869350602092506104da94915060ff191682840152151560051b820101946104c8565b50503461021057816003193601126102105760075490516001600160a01b039091168152602090f35b83346105f657806003193601126105f6576105b2610f7c565b600780546001600160a01b0319811690915581906001600160a01b03167f8be0079c531659141344cd1fd0a4f28419497f9722a3daafe3b4186f6b6457e08280a380f35b80fd5b50829034610210576020366003190112610210576001600160a01b0361061d610e51565b1690811561063a5760208480858581526003845220549051908152f35b608490602085519162461bcd60e51b8352820152602960248201527f4552433732313a2061646472657373207a65726f206973206e6f7420612076616044820152683634b21037bbb732b960b91b6064820152fd5b5091346105f65760203660031901126105f657506106af60209235611020565b90516001600160a01b039091168152f35b50503461021057610383906106d436610e82565b919251926106e184610eb7565b85845261111d565b5090346101be5760603660031901126101be57610704610e51565b9260249267ffffffffffffffff918435838111610210576107289036908401610f5e565b916044358481116101be576107409036908301610f5e565b96610749610f7c565b6001600160a01b0316938415610af157835115610aaf578483526020976009895286842054610a6d57600190816008540198896008556107a76107a18b600052600260205260018060a01b0360406000205416151590565b156114b3565b60008a8152600260205260409020546107ca906001600160a01b031615156107a1565b87865260038b5288862080548401905589865260028b5288862080546001600160a01b031916891790558988877fddf252ad1be2c89b69c2b068fc378daa952ba7f163c4a11628f55a4df523b3ef8180a460008a8152600260205260409020546001600160a01b031615610a155789865260068b52888620948251948511610a04575050918391899695936108608a9654611043565b601f81116109a8575b508b90601f84116001146109155792808087948b97946109019a977fca6e67ed78cee38a33c4c9d9215ced626a518bd549097039db5af94454f1248b9c9a9461090a575b50501b916000199060031b1c19161790555b7ff8e1a15aba9398e019f0b49df1a4fde98ee17ae345cb5f6b5e2c27f5033e8ce78b8351858152a187815260098b522055855191829189835289830190610e11565b0390a351908152f35b0151925038806108ad565b8486528c86209293929190601f198416878f5b82821061098d5750509261090198959285927fca6e67ed78cee38a33c4c9d9215ced626a518bd549097039db5af94454f1248b9b99968d999610610974575b505050811b0190556108bf565b015160001960f88460031b161c19169055388080610967565b8484015186558f9c508e9a509487019493840193018f610928565b9193955091939596508486528a8620601f850160051c8101918c86106109fa575b918b9897959391601f8c9896940160051c01905b8181106109ea5750610869565b8681558c99508b975083016109dd565b90915081906109c9565b634e487b7160e01b87526041905285fd5b84602e6084928d8c519362461bcd60e51b85528401528201527f45524337323155524953746f726167653a2055524920736574206f66206e6f6e60448201526d32bc34b9ba32b73a103a37b5b2b760911b6064820152fd5b865162461bcd60e51b81528084018a90526018818a01527f53747564656e74494420616c72656164792065786973747300000000000000006044820152606490fd5b855162461bcd60e51b8152602081840152601a818901527f53747564656e742049442063616e6e6f7420626520656d7074790000000000006044820152606490fd5b855162461bcd60e51b815260208184015260168189015275496e76616c69642077616c6c6574206164647265737360501b6044820152606490fd5b83346105f657610383610b3e36610e82565b91610b51610b4c84336111b8565b6110bb565b611280565b50346101be57816003193601126101be57610b6f610e51565b6024359290916001600160a01b0391908280610b8a87611020565b16941693808514610c7657803314908115610c57575b5015610bef57848652602052842080546001600160a01b03191683179055610bc783611020565b167f8c5be1e5ebec7d5bd14f71427d1e84f3dd0314c0f7b2291e5b200ac8c7c3b9258480a480f35b6020608492519162461bcd60e51b8352820152603d60248201527f4552433732313a20617070726f76652063616c6c6572206973206e6f7420746f60448201527f6b656e206f776e6572206f7220617070726f76656420666f7220616c6c0000006064820152fd5b90508652600560205281862033875260205260ff828720541638610ba0565b506020608492519162461bcd60e51b8352820152602160248201527f4552433732313a20617070726f76616c20746f2063757272656e74206f776e656044820152603960f91b6064820152fd5b5091346105f65760203660031901126105f657506106af6020923561107d565b505034610210578160031936011261021057805190828054610d0481611043565b808552916001918083169081156105485750600114610d2f575050506104da826102b5940383610ee9565b80809650527f290decd9548b62a8d60345a988386fc84ba6bc95484008f6362f93160ef3e5635b828610610d73575050506104da8260206102b595820101946104c8565b80546020878701810191909152909501948101610d56565b925050346101be5760203660031901126101be573563ffffffff60e01b81168091036101be5760209250632483248360e11b8114908115610dce575b5015158152f35b6380ac58cd60e01b811491508115610e00575b8115610def575b5038610dc7565b6301ffc9a760e01b14905038610de8565b635b5e139f60e01b81149150610de1565b919082519283825260005b848110610e3d575050826000602080949584010152601f8019910116010190565b602081830181015184830182015201610e1c565b600435906001600160a01b0382168203610e6757565b600080fd5b602435906001600160a01b0382168203610e6757565b6060906003190112610e67576001600160a01b03906004358281168103610e6757916024359081168103610e67579060443590565b6020810190811067ffffffffffffffff821117610ed357604052565b634e487b7160e01b600052604160045260246000fd5b90601f8019910116810190811067ffffffffffffffff821117610ed357604052565b67ffffffffffffffff8111610ed357601f01601f191660200190565b929192610f3382610f0b565b91610f416040519384610ee9565b829481845281830111610e67578281602093846000960137010152565b9080601f83011215610e6757816020610f7993359101610f27565b90565b6007546001600160a01b03163303610f9057565b606460405162461bcd60e51b815260206004820152602060248201527f4f776e61626c653a2063616c6c6572206973206e6f7420746865206f776e65726044820152fd5b15610fdb57565b60405162461bcd60e51b815260206004820152601860248201527f4552433732313a20696e76616c696420746f6b656e20494400000000000000006044820152606490fd5b6000908152600260205260409020546001600160a01b0316610f79811515610fd4565b90600182811c92168015611073575b602083101461105d57565b634e487b7160e01b600052602260045260246000fd5b91607f1691611052565b6000818152600260205260409020546110a0906001600160a01b03161515610fd4565b6000908152600460205260409020546001600160a01b031690565b156110c257565b60405162461bcd60e51b815260206004820152602d60248201527f4552433732313a2063616c6c6572206973206e6f7420746f6b656e206f776e6560448201526c1c881bdc88185c1c1c9bdd9959609a1b6064820152608490fd5b90611141939291611131610b4c84336111b8565b61113c838383611280565b611396565b1561114857565b60405162461bcd60e51b81528061116160048201611165565b0390fd5b60809060208152603260208201527f4552433732313a207472616e7366657220746f206e6f6e20455243373231526560408201527131b2b4bb32b91034b6b83632b6b2b73a32b960711b60608201520190565b906001600160a01b0380806111cc84611020565b169316918383149384156111ff575b5083156111e9575b50505090565b6111f59192935061107d565b16143880806111e3565b909350600052600560205260406000208260005260205260ff6040600020541692386111db565b1561122d57565b60405162461bcd60e51b815260206004820152602560248201527f4552433732313a207472616e736665722066726f6d20696e636f72726563742060448201526437bbb732b960d91b6064820152608490fd5b906112a89161128e84611020565b6001600160a01b0393918416928492909183168414611226565b1691821561134557816112c5916112be86611020565b1614611226565b7fddf252ad1be2c89b69c2b068fc378daa952ba7f163c4a11628f55a4df523b3ef60008481526004602052604081206bffffffffffffffffffffffff60a01b9081815416905583825260036020526040822060001981540190558482526040822060018154019055858252600260205284604083209182541617905580a4565b60405162461bcd60e51b8152602060048201526024808201527f4552433732313a207472616e7366657220746f20746865207a65726f206164646044820152637265737360e01b6064820152608490fd5b92939190803b156114a9576113e8946040518092630a85bd0160e11b9485835233600484015260018060a01b03809816602484015260448301526080606483015281806020998a956084830190610e11565b03916000988991165af1849181611469575b50611458575050503d600014611450573d61141481610f0b565b906114226040519283610ee9565b81528091833d92013e5b8051918261144d5760405162461bcd60e51b81528061116160048201611165565b01fd5b50606061142c565b6001600160e01b0319161492509050565b9091508581813d83116114a2575b6114818183610ee9565b8101031261038657516001600160e01b0319811681036103865790386113fa565b503d611477565b5050915050600190565b156114ba57565b60405162461bcd60e51b815260206004820152601c60248201527f4552433732313a20746f6b656e20616c7265616479206d696e746564000000006044820152606490fdfea2646970667358221220fc0c80c3301cd98e665ceb7434978593d4b7c0a23d7ea8ca71d86bd4177e928964736f6c63430008140033",
  "linkReferences": {},
  "deployedLinkReferences": {}
}